{
  "_format": "hh-sol-artifact-1",
  "contractName": "ConsumePi",
  "sourceName": "contracts/ConsumePi.sol",
  "abi": [
    {
      "inputs": [],
      "stateMutability": "nonpayable",
      "type": "constructor"
    },
    {
      "anonymous": false,
      "inputs": [
        {
          "indexed": true,
          "internalType": "bytes32",
          "name": "id",
          "type": "bytes32"
        }
      ],
      "name": "ChainlinkCancelled",
      "type": "event"
    },
    {
      "anonymous": false,
      "inputs": [
        {
          "indexed": true,
          "internalType": "bytes32",
          "name": "id",
          "type": "bytes32"
        }
      ],
      "name": "ChainlinkFulfilled",
      "type": "event"
    },
    {
      "anonymous": false,
      "inputs": [
        {
          "indexed": true,
          "internalType": "bytes32",
          "name": "id",
          "type": "bytes32"
        }
      ],
      "name": "ChainlinkRequested",
      "type": "event"
    },
    {
      "anonymous": false,
      "inputs": [
        {
          "indexed": false,
          "internalType": "address",
          "name": "_owner",
          "type": "address"
        },
        {
          "indexed": true,
          "internalType": "bytes32",
          "name": "_Job",
          "type": "bytes32"
        }
      ],
      "name": "JobAdd",
      "type": "event"
    },
    {
      "anonymous": false,
      "inputs": [
        {
          "indexed": false,
          "internalType": "address",
          "name": "_owner",
          "type": "address"
        },
        {
          "indexed": true,
          "internalType": "address",
          "name": "_oracleAddress",
          "type": "address"
        }
      ],
      "name": "OracleAdd",
      "type": "event"
    },
    {
      "anonymous": false,
      "inputs": [
        {
          "indexed": false,
          "internalType": "address",
          "name": "_owner",
          "type": "address"
        },
        {
          "indexed": true,
          "internalType": "address",
          "name": "_newOwner",
          "type": "address"
        }
      ],
      "name": "OwnerAdd",
      "type": "event"
    },
    {
      "anonymous": false,
      "inputs": [
        {
          "indexed": false,
          "internalType": "address",
          "name": "_owner",
          "type": "address"
        },
        {
          "indexed": true,
          "internalType": "string",
          "name": "_path",
          "type": "string"
        }
      ],
      "name": "PathAdd",
      "type": "event"
    },
    {
      "anonymous": false,
      "inputs": [
        {
          "indexed": false,
          "internalType": "address",
          "name": "_owner",
          "type": "address"
        },
        {
          "indexed": true,
          "internalType": "string",
          "name": "_url",
          "type": "string"
        }
      ],
      "name": "UrlAdd",
      "type": "event"
    },
    {
      "inputs": [
        {
          "internalType": "bytes32",
          "name": "_jobId",
          "type": "bytes32"
        }
      ],
      "name": "addJob",
      "outputs": [],
      "stateMutability": "nonpayable",
      "type": "function"
    },
    {
      "inputs": [
        {
          "internalType": "address",
          "name": "_oracleAddr",
          "type": "address"
        }
      ],
      "name": "addOracle",
      "outputs": [],
      "stateMutability": "nonpayable",
      "type": "function"
    },
    {
      "inputs": [
        {
          "internalType": "address",
          "name": "_newOwner",
          "type": "address"
        }
      ],
      "name": "addOwner",
      "outputs": [],
      "stateMutability": "nonpayable",
      "type": "function"
    },
    {
      "inputs": [
        {
          "internalType": "string",
          "name": "_path",
          "type": "string"
        }
      ],
      "name": "addPath",
      "outputs": [],
      "stateMutability": "nonpayable",
      "type": "function"
    },
    {
      "inputs": [
        {
          "internalType": "string",
          "name": "_url",
          "type": "string"
        }
      ],
      "name": "addUrl",
      "outputs": [],
      "stateMutability": "nonpayable",
      "type": "function"
    },
    {
      "inputs": [],
      "name": "data",
      "outputs": [
        {
          "internalType": "uint256",
          "name": "",
          "type": "uint256"
        }
      ],
      "stateMutability": "view",
      "type": "function"
    },
    {
      "inputs": [],
      "name": "depositLink",
      "outputs": [],
      "stateMutability": "payable",
      "type": "function"
    },
    {
      "inputs": [],
      "name": "fee",
      "outputs": [
        {
          "internalType": "uint256",
          "name": "",
          "type": "uint256"
        }
      ],
      "stateMutability": "view",
      "type": "function"
    },
    {
      "inputs": [
        {
          "internalType": "bytes32",
          "name": "_requestId",
          "type": "bytes32"
        },
        {
          "internalType": "uint256",
          "name": "_data",
          "type": "uint256"
        }
      ],
      "name": "fulfill",
      "outputs": [],
      "stateMutability": "nonpayable",
      "type": "function"
    },
    {
      "inputs": [],
      "name": "getData",
      "outputs": [
        {
          "internalType": "uint256",
          "name": "",
          "type": "uint256"
        }
      ],
      "stateMutability": "view",
      "type": "function"
    },
    {
      "inputs": [],
      "name": "getFee",
      "outputs": [
        {
          "internalType": "uint256",
          "name": "",
          "type": "uint256"
        }
      ],
      "stateMutability": "view",
      "type": "function"
    },
    {
      "inputs": [],
      "name": "getJob",
      "outputs": [
        {
          "internalType": "bytes32",
          "name": "",
          "type": "bytes32"
        }
      ],
      "stateMutability": "view",
      "type": "function"
    },
    {
      "inputs": [],
      "name": "getOracle",
      "outputs": [
        {
          "internalType": "address",
          "name": "",
          "type": "address"
        }
      ],
      "stateMutability": "view",
      "type": "function"
    },
    {
      "inputs": [],
      "name": "getOracles",
      "outputs": [
        {
          "internalType": "address[]",
          "name": "",
          "type": "address[]"
        }
      ],
      "stateMutability": "view",
      "type": "function"
    },
    {
      "inputs": [],
      "name": "getOwners",
      "outputs": [
        {
          "internalType": "address[]",
          "name": "",
          "type": "address[]"
        }
      ],
      "stateMutability": "view",
      "type": "function"
    },
    {
      "inputs": [],
      "name": "getPaths",
      "outputs": [
        {
          "internalType": "string[]",
          "name": "",
          "type": "string[]"
        }
      ],
      "stateMutability": "view",
      "type": "function"
    },
    {
      "inputs": [],
      "name": "getUrls",
      "outputs": [
        {
          "internalType": "string[]",
          "name": "",
          "type": "string[]"
        }
      ],
      "stateMutability": "view",
      "type": "function"
    },
    {
      "inputs": [],
      "name": "getjobs",
      "outputs": [
        {
          "internalType": "bytes32[]",
          "name": "",
          "type": "bytes32[]"
        }
      ],
      "stateMutability": "view",
      "type": "function"
    },
    {
      "inputs": [
        {
          "internalType": "address",
          "name": "",
          "type": "address"
        }
      ],
      "name": "isOwner",
      "outputs": [
        {
          "internalType": "bool",
          "name": "",
          "type": "bool"
        }
      ],
      "stateMutability": "view",
      "type": "function"
    },
    {
      "inputs": [
        {
          "internalType": "bytes32",
          "name": "",
          "type": "bytes32"
        }
      ],
      "name": "jobAuth",
      "outputs": [
        {
          "internalType": "bool",
          "name": "",
          "type": "bool"
        }
      ],
      "stateMutability": "view",
      "type": "function"
    },
    {
      "inputs": [],
      "name": "jobId",
      "outputs": [
        {
          "internalType": "bytes32",
          "name": "",
          "type": "bytes32"
        }
      ],
      "stateMutability": "view",
      "type": "function"
    },
    {
      "inputs": [
        {
          "internalType": "uint256",
          "name": "",
          "type": "uint256"
        }
      ],
      "name": "jobs",
      "outputs": [
        {
          "internalType": "bytes32",
          "name": "",
          "type": "bytes32"
        }
      ],
      "stateMutability": "view",
      "type": "function"
    },
    {
      "inputs": [],
      "name": "oracle",
      "outputs": [
        {
          "internalType": "address",
          "name": "",
          "type": "address"
        }
      ],
      "stateMutability": "view",
      "type": "function"
    },
    {
      "inputs": [
        {
          "internalType": "address",
          "name": "",
          "type": "address"
        }
      ],
      "name": "oracleAuth",
      "outputs": [
        {
          "internalType": "bool",
          "name": "",
          "type": "bool"
        }
      ],
      "stateMutability": "view",
      "type": "function"
    },
    {
      "inputs": [
        {
          "internalType": "uint256",
          "name": "",
          "type": "uint256"
        }
      ],
      "name": "oracles",
      "outputs": [
        {
          "internalType": "address",
          "name": "",
          "type": "address"
        }
      ],
      "stateMutability": "view",
      "type": "function"
    },
    {
      "inputs": [],
      "name": "owner",
      "outputs": [
        {
          "internalType": "address",
          "name": "",
          "type": "address"
        }
      ],
      "stateMutability": "view",
      "type": "function"
    },
    {
      "inputs": [
        {
          "internalType": "uint256",
          "name": "",
          "type": "uint256"
        }
      ],
      "name": "owners",
      "outputs": [
        {
          "internalType": "address",
          "name": "",
          "type": "address"
        }
      ],
      "stateMutability": "view",
      "type": "function"
    },
    {
      "inputs": [],
      "name": "path",
      "outputs": [
        {
          "internalType": "string",
          "name": "",
          "type": "string"
        }
      ],
      "stateMutability": "view",
      "type": "function"
    },
    {
      "inputs": [
        {
          "internalType": "string",
          "name": "",
          "type": "string"
        }
      ],
      "name": "pathExists",
      "outputs": [
        {
          "internalType": "bool",
          "name": "",
          "type": "bool"
        }
      ],
      "stateMutability": "view",
      "type": "function"
    },
    {
      "inputs": [
        {
          "internalType": "uint256",
          "name": "",
          "type": "uint256"
        }
      ],
      "name": "paths",
      "outputs": [
        {
          "internalType": "string",
          "name": "",
          "type": "string"
        }
      ],
      "stateMutability": "view",
      "type": "function"
    },
    {
      "inputs": [],
      "name": "requestData",
      "outputs": [
        {
          "internalType": "bytes32",
          "name": "requestId",
          "type": "bytes32"
        }
      ],
      "stateMutability": "nonpayable",
      "type": "function"
    },
    {
      "inputs": [
        {
          "internalType": "uint256",
          "name": "_rate",
          "type": "uint256"
        }
      ],
      "name": "setFee",
      "outputs": [],
      "stateMutability": "nonpayable",
      "type": "function"
    },
    {
      "inputs": [
        {
          "internalType": "bytes32",
          "name": "_jobId",
          "type": "bytes32"
        }
      ],
      "name": "setJob",
      "outputs": [],
      "stateMutability": "nonpayable",
      "type": "function"
    },
    {
      "inputs": [
        {
          "internalType": "address",
          "name": "_oracleAddr",
          "type": "address"
        }
      ],
      "name": "setOracle",
      "outputs": [],
      "stateMutability": "nonpayable",
      "type": "function"
    },
    {
      "inputs": [],
      "name": "token",
      "outputs": [
        {
          "internalType": "address",
          "name": "",
          "type": "address"
        }
      ],
      "stateMutability": "view",
      "type": "function"
    },
    {
      "inputs": [],
      "name": "totalValue",
      "outputs": [
        {
          "internalType": "uint256",
          "name": "",
          "type": "uint256"
        }
      ],
      "stateMutability": "view",
      "type": "function"
    },
    {
      "inputs": [],
      "name": "url",
      "outputs": [
        {
          "internalType": "string",
          "name": "",
          "type": "string"
        }
      ],
      "stateMutability": "view",
      "type": "function"
    },
    {
      "inputs": [
        {
          "internalType": "string",
          "name": "",
          "type": "string"
        }
      ],
      "name": "urlAuth",
      "outputs": [
        {
          "internalType": "bool",
          "name": "",
          "type": "bool"
        }
      ],
      "stateMutability": "view",
      "type": "function"
    },
    {
      "inputs": [
        {
          "internalType": "uint256",
          "name": "",
          "type": "uint256"
        }
      ],
      "name": "urls",
      "outputs": [
        {
          "internalType": "string",
          "name": "",
          "type": "string"
        }
      ],
      "stateMutability": "view",
      "type": "function"
    },
    {
      "inputs": [
        {
          "internalType": "address payable",
          "name": "_to",
          "type": "address"
        },
        {
          "internalType": "uint256",
          "name": "_amount",
          "type": "uint256"
        }
      ],
      "name": "withdrawLink",
      "outputs": [],
      "stateMutability": "nonpayable",
      "type": "function"
    }
  ],
  "bytecode": "0x608060405260016004553480156200001657600080fd5b506200003c7301be23585060835e02b77ef475b0cc51aa1e07096200010e60201b60201c565b33600a60006101000a81548173ffffffffffffffffffffffffffffffffffffffff021916908373ffffffffffffffffffffffffffffffffffffffff16021790555073ee04451ac26bb7fe0fa1596db06df7fbfef5bd91600760006101000a81548173ffffffffffffffffffffffffffffffffffffffff021916908373ffffffffffffffffffffffffffffffffffffffff1602179055507f393138363265643535333638343965366264643136626335343066323038386660088190555067016345785d8a000060098190555062000152565b80600260006101000a81548173ffffffffffffffffffffffffffffffffffffffff021916908373ffffffffffffffffffffffffffffffffffffffff16021790555050565b6141ca80620001626000396000f3fe60806040526004361061023b5760003560e01c80637adbf9731161012e578063d1bbf362116100ab578063df5dd1a51161006f578063df5dd1a514610894578063eb55787c146108bd578063f846daaf146108e6578063fc0c546a1461090f578063fc1bcd491461093a5761023b565b8063d1bbf362146107de578063d4c3eea0146107e8578063da06e07f14610813578063dd28e14d1461083e578063ddca3f43146108695761023b565b80639781b96c116100f25780639781b96c1461070b578063a0e67e2b14610734578063c2939d971461075f578063cc71b30f1461078a578063ced72f87146107b35761023b565b80637adbf973146106245780637dc0d1d01461064d578063833b1fce146106785780638da5cb5b146106a35780639079b46d146106ce5761023b565b80634357855e116101bc578063606deecd11610180578063606deecd1461053f57806369fe0e2d1461056a5780637065cb481461059357806373d4a13a146105bc578063796676be146105e75761023b565b80634357855e1461044857806347414d5e1461047157806354b7faae146104ae5780635600f04f146104d75780635b69a7d8146105025761023b565b80633a953e29116102035780633a953e291461035f5780633bc5de301461038a5780633dc06356146103b55780633ee6265f146103e057806340884c521461041d5761023b565b8063025e7c27146102405780631767ae331461027d578063180aedf3146102a85780632ae22761146102e55780632f54bf6e14610322575b600080fd5b34801561024c57600080fd5b5061026760048036038101906102629190612d6a565b610977565b6040516102749190612dd8565b60405180910390f35b34801561028957600080fd5b506102926109b6565b60405161029f9190612f4e565b60405180910390f35b3480156102b457600080fd5b506102cf60048036038101906102ca9190612d6a565b610a8f565b6040516102dc9190612f89565b60405180910390f35b3480156102f157600080fd5b5061030c600480360381019061030791906130d9565b610ab3565b604051610319919061313d565b60405180910390f35b34801561032e57600080fd5b5061034960048036038101906103449190613184565b610ae9565b604051610356919061313d565b60405180910390f35b34801561036b57600080fd5b50610374610b09565b604051610381919061326f565b60405180910390f35b34801561039657600080fd5b5061039f610b61565b6040516103ac91906132a0565b60405180910390f35b3480156103c157600080fd5b506103ca610b6b565b6040516103d79190613305565b60405180910390f35b3480156103ec57600080fd5b5061040760048036038101906104029190613184565b610bf9565b604051610414919061313d565b60405180910390f35b34801561042957600080fd5b50610432610c19565b60405161043f91906133e5565b60405180910390f35b34801561045457600080fd5b5061046f600480360381019061046a9190613433565b610ca7565b005b34801561047d57600080fd5b5061049860048036038101906104939190613473565b610db8565b6040516104a5919061313d565b60405180910390f35b3480156104ba57600080fd5b506104d560048036038101906104d091906134de565b610dd8565b005b3480156104e357600080fd5b506104ec610f59565b6040516104f99190613305565b60405180910390f35b34801561050e57600080fd5b5061052960048036038101906105249190612d6a565b610fe7565b6040516105369190612dd8565b60405180910390f35b34801561054b57600080fd5b50610554611026565b6040516105619190612f89565b60405180910390f35b34801561057657600080fd5b50610591600480360381019061058c9190612d6a565b6111ca565b005b34801561059f57600080fd5b506105ba60048036038101906105b59190613184565b611273565b005b3480156105c857600080fd5b506105d1611449565b6040516105de91906132a0565b60405180910390f35b3480156105f357600080fd5b5061060e60048036038101906106099190612d6a565b61144f565b60405161061b9190613305565b60405180910390f35b34801561063057600080fd5b5061064b60048036038101906106469190613184565b6114fb565b005b34801561065957600080fd5b5061066261165e565b60405161066f9190612dd8565b60405180910390f35b34801561068457600080fd5b5061068d611684565b60405161069a9190612dd8565b60405180910390f35b3480156106af57600080fd5b506106b86116ae565b6040516106c59190612dd8565b60405180910390f35b3480156106da57600080fd5b506106f560048036038101906106f091906130d9565b6116d4565b604051610702919061313d565b60405180910390f35b34801561071757600080fd5b50610732600480360381019061072d9190613473565b61170a565b005b34801561074057600080fd5b50610749611894565b60405161075691906133e5565b60405180910390f35b34801561076b57600080fd5b50610774611922565b6040516107819190612f89565b60405180910390f35b34801561079657600080fd5b506107b160048036038101906107ac91906130d9565b611928565b005b3480156107bf57600080fd5b506107c8611b03565b6040516107d591906132a0565b60405180910390f35b6107e6611b0d565b005b3480156107f457600080fd5b506107fd611b28565b60405161080a91906132a0565b60405180910390f35b34801561081f57600080fd5b50610828611b2e565b6040516108359190612f4e565b60405180910390f35b34801561084a57600080fd5b50610853611c07565b6040516108609190612f89565b60405180910390f35b34801561087557600080fd5b5061087e611c11565b60405161088b91906132a0565b60405180910390f35b3480156108a057600080fd5b506108bb60048036038101906108b69190613184565b611c17565b005b3480156108c957600080fd5b506108e460048036038101906108df91906130d9565b611e83565b005b3480156108f257600080fd5b5061090d60048036038101906109089190613473565b61205e565b005b34801561091b57600080fd5b5061092461215b565b6040516109319190612dd8565b60405180910390f35b34801561094657600080fd5b50610961600480360381019061095c9190612d6a565b612181565b60405161096e9190613305565b60405180910390f35b6018818154811061098757600080fd5b906000526020600020016000915054906101000a900473ffffffffffffffffffffffffffffffffffffffff1681565b60606017805480602002602001604051908101604052809291908181526020016000905b82821015610a865783829060005260206000200180546109f99061354d565b80601f0160208091040260200160405190810160405280929190818152602001828054610a259061354d565b8015610a725780601f10610a4757610100808354040283529160200191610a72565b820191906000526020600020905b815481529060010190602001808311610a5557829003601f168201915b5050505050815260200190600101906109da565b50505050905090565b60148181548110610a9f57600080fd5b906000526020600020016000915090505481565b6011818051602081018201805184825260208301602085012081835280955050505050506000915054906101000a900460ff1681565b60136020528060005260406000206000915054906101000a900460ff1681565b60606014805480602002602001604051908101604052809291908181526020018280548015610b5757602002820191906000526020600020905b815481526020019060010190808311610b43575b5050505050905090565b6000600654905090565b600d8054610b789061354d565b80601f0160208091040260200160405190810160405280929190818152602001828054610ba49061354d565b8015610bf15780601f10610bc657610100808354040283529160200191610bf1565b820191906000526020600020905b815481529060010190602001808311610bd457829003601f168201915b505050505081565b600f6020528060005260406000206000915054906101000a900460ff1681565b60606015805480602002602001604051908101604052809291908181526020018280548015610c9d57602002820191906000526020600020905b8160009054906101000a900473ffffffffffffffffffffffffffffffffffffffff1673ffffffffffffffffffffffffffffffffffffffff1681526020019060010190808311610c53575b5050505050905090565b816005600082815260200190815260200160002060009054906101000a900473ffffffffffffffffffffffffffffffffffffffff1673ffffffffffffffffffffffffffffffffffffffff163373ffffffffffffffffffffffffffffffffffffffff1614610d49576040517f08c379a0000000000000000000000000000000000000000000000000000000008152600401610d40906135f1565b60405180910390fd5b6005600082815260200190815260200160002060006101000a81549073ffffffffffffffffffffffffffffffffffffffff0219169055807f7cc135e0cebb02c3480ae5d74d377283180a2601f8f644edf7987b009316c63a60405160405180910390a281600681905550505050565b60106020528060005260406000206000915054906101000a900460ff1681565b601360003373ffffffffffffffffffffffffffffffffffffffff1673ffffffffffffffffffffffffffffffffffffffff16815260200190815260200160002060009054906101000a900460ff16610e64576040517f08c379a0000000000000000000000000000000000000000000000000000000008152600401610e5b9061365d565b60405180910390fd5b600e548110610ea8576040517f08c379a0000000000000000000000000000000000000000000000000000000008152600401610e9f906136c9565b60405180910390fd5b60008273ffffffffffffffffffffffffffffffffffffffff1682604051610ece9061371a565b60006040518083038185875af1925050503d8060008114610f0b576040519150601f19603f3d011682016040523d82523d6000602084013e610f10565b606091505b5050905080610f54576040517f08c379a0000000000000000000000000000000000000000000000000000000008152600401610f4b9061377b565b60405180910390fd5b505050565b600c8054610f669061354d565b80601f0160208091040260200160405190810160405280929190818152602001828054610f929061354d565b8015610fdf5780601f10610fb457610100808354040283529160200191610fdf565b820191906000526020600020905b815481529060010190602001808311610fc257829003601f168201915b505050505081565b60158181548110610ff757600080fd5b906000526020600020016000915054906101000a900473ffffffffffffffffffffffffffffffffffffffff1681565b60008061103d60085430634357855e60e01b61222d565b90506110be6040518060400160405280600481526020017f70617468000000000000000000000000000000000000000000000000000000008152506040518060400160405280600781526020017f63707554656d70000000000000000000000000000000000000000000000000008152508361225e9092919063ffffffff16565b6000670de0b6b3a7640000905061114a6040518060400160405280600781526020017f70695f74656d70000000000000000000000000000000000000000000000000008152506040518060400160405280600781526020017f63707554656d70000000000000000000000000000000000000000000000000008152508461225e9092919063ffffffff16565b6111946040518060400160405280600581526020017f74696d657300000000000000000000000000000000000000000000000000000081525082846122919092919063ffffffff16565b6111c3600760009054906101000a900473ffffffffffffffffffffffffffffffffffffffff16836009546122c4565b9250505090565b601360003373ffffffffffffffffffffffffffffffffffffffff1673ffffffffffffffffffffffffffffffffffffffff16815260200190815260200160002060009054906101000a900460ff16611256576040517f08c379a000000000000000000000000000000000000000000000000000000000815260040161124d9061365d565b60405180910390fd5b670de0b6b3a76400008161126a91906137ca565b60098190555050565b601360003373ffffffffffffffffffffffffffffffffffffffff1673ffffffffffffffffffffffffffffffffffffffff16815260200190815260200160002060009054906101000a900460ff166112ff576040517f08c379a00000000000000000000000000000000000000000000000000000000081526004016112f69061365d565b60405180910390fd5b6000601360008373ffffffffffffffffffffffffffffffffffffffff1673ffffffffffffffffffffffffffffffffffffffff16815260200190815260200160002060006101000a81548160ff0219169083151502179055611395576040517f08c379a000000000000000000000000000000000000000000000000000000000815260040161138c90613870565b60405180910390fd5b6018819080600181540180825580915050600190039060005260206000200160009091909190916101000a81548173ffffffffffffffffffffffffffffffffffffffff021916908373ffffffffffffffffffffffffffffffffffffffff1602179055508073ffffffffffffffffffffffffffffffffffffffff167f090ba92f5fbae40c1d309ad0e93793dc8615e023fc5d5924dcfc725b8caa06b53360405161143e9190612dd8565b60405180910390a250565b60065481565b6016818154811061145f57600080fd5b90600052602060002001600091509050805461147a9061354d565b80601f01602080910402602001604051908101604052809291908181526020018280546114a69061354d565b80156114f35780601f106114c8576101008083540402835291602001916114f3565b820191906000526020600020905b8154815290600101906020018083116114d657829003601f168201915b505050505081565b601360003373ffffffffffffffffffffffffffffffffffffffff1673ffffffffffffffffffffffffffffffffffffffff16815260200190815260200160002060009054906101000a900460ff16611587576040517f08c379a000000000000000000000000000000000000000000000000000000000815260040161157e9061365d565b60405180910390fd5b60011515600f60008373ffffffffffffffffffffffffffffffffffffffff1673ffffffffffffffffffffffffffffffffffffffff16815260200190815260200160002060009054906101000a900460ff1615151461161a576040517f08c379a0000000000000000000000000000000000000000000000000000000008152600401611611906138dc565b60405180910390fd5b80600760006101000a81548173ffffffffffffffffffffffffffffffffffffffff021916908373ffffffffffffffffffffffffffffffffffffffff16021790555050565b600760009054906101000a900473ffffffffffffffffffffffffffffffffffffffff1681565b6000600760009054906101000a900473ffffffffffffffffffffffffffffffffffffffff16905090565b600a60009054906101000a900473ffffffffffffffffffffffffffffffffffffffff1681565b6012818051602081018201805184825260208301602085012081835280955050505050506000915054906101000a900460ff1681565b601360003373ffffffffffffffffffffffffffffffffffffffff1673ffffffffffffffffffffffffffffffffffffffff16815260200190815260200160002060009054906101000a900460ff16611796576040517f08c379a000000000000000000000000000000000000000000000000000000000815260040161178d9061365d565b60405180910390fd5b600015156010600083815260200190815260200160002060009054906101000a900460ff161515146117fd576040517f08c379a00000000000000000000000000000000000000000000000000000000081526004016117f490613948565b60405180910390fd5b60016010600083815260200190815260200160002060006101000a81548160ff021916908315150217905550806008819055506014819080600181540180825580915050600190039060005260206000200160009091909190915055807f59bd9db4e80912198e2c6e07070b8b3996054c72eb0444fc5aafc501131eb9bb336040516118899190612dd8565b60405180910390a250565b6060601880548060200260200160405190810160405280929190818152602001828054801561191857602002820191906000526020600020905b8160009054906101000a900473ffffffffffffffffffffffffffffffffffffffff1673ffffffffffffffffffffffffffffffffffffffff16815260200190600101908083116118ce575b5050505050905090565b60085481565b601360003373ffffffffffffffffffffffffffffffffffffffff1673ffffffffffffffffffffffffffffffffffffffff16815260200190815260200160002060009054906101000a900460ff166119b4576040517f08c379a00000000000000000000000000000000000000000000000000000000081526004016119ab9061365d565b60405180910390fd5b60006012826040516119c691906139a4565b908152602001604051809103902060006101000a81548160ff0219169083151502179055611a29576040517f08c379a0000000000000000000000000000000000000000000000000000000008152600401611a2090613a07565b60405180910390fd5b6001601282604051611a3b91906139a4565b908152602001604051809103902060006101000a81548160ff02191690831515021790555080600d9080519060200190611a76929190612bf6565b50601781908060018154018082558091505060019003906000526020600020016000909190919091509080519060200190611ab2929190612bf6565b5080604051611ac191906139a4565b60405180910390207f7f0c0553b23d8254816168ecabaf56052271883bbad6f3964262f242c9e30b4b33604051611af89190612dd8565b60405180910390a250565b6000600954905090565b34600e6000828254611b1f9190613a27565b92505081905550565b600e5481565b60606016805480602002602001604051908101604052809291908181526020016000905b82821015611bfe578382906000526020600020018054611b719061354d565b80601f0160208091040260200160405190810160405280929190818152602001828054611b9d9061354d565b8015611bea5780601f10611bbf57610100808354040283529160200191611bea565b820191906000526020600020905b815481529060010190602001808311611bcd57829003601f168201915b505050505081526020019060010190611b52565b50505050905090565b6000600854905090565b60095481565b601360003373ffffffffffffffffffffffffffffffffffffffff1673ffffffffffffffffffffffffffffffffffffffff16815260200190815260200160002060009054906101000a900460ff16611ca3576040517f08c379a0000000000000000000000000000000000000000000000000000000008152600401611c9a9061365d565b60405180910390fd5b60001515600f60008373ffffffffffffffffffffffffffffffffffffffff1673ffffffffffffffffffffffffffffffffffffffff16815260200190815260200160002060009054906101000a900460ff16151514611d36576040517f08c379a0000000000000000000000000000000000000000000000000000000008152600401611d2d90613ac9565b60405180910390fd5b6001600f60008373ffffffffffffffffffffffffffffffffffffffff1673ffffffffffffffffffffffffffffffffffffffff16815260200190815260200160002060006101000a81548160ff02191690831515021790555080600760006101000a81548173ffffffffffffffffffffffffffffffffffffffff021916908373ffffffffffffffffffffffffffffffffffffffff1602179055506015819080600181540180825580915050600190039060005260206000200160009091909190916101000a81548173ffffffffffffffffffffffffffffffffffffffff021916908373ffffffffffffffffffffffffffffffffffffffff1602179055508073ffffffffffffffffffffffffffffffffffffffff167fff981d19ed340961adeafcb27727e8c2b5bdaefe87f3683db00cadcd1c3e52d733604051611e789190612dd8565b60405180910390a250565b601360003373ffffffffffffffffffffffffffffffffffffffff1673ffffffffffffffffffffffffffffffffffffffff16815260200190815260200160002060009054906101000a900460ff16611f0f576040517f08c379a0000000000000000000000000000000000000000000000000000000008152600401611f069061365d565b60405180910390fd5b6000601182604051611f2191906139a4565b908152602001604051809103902060006101000a81548160ff0219169083151502179055611f84576040517f08c379a0000000000000000000000000000000000000000000000000000000008152600401611f7b90613b35565b60405180910390fd5b6001601182604051611f9691906139a4565b908152602001604051809103902060006101000a81548160ff02191690831515021790555080600c9080519060200190611fd1929190612bf6565b5060168190806001815401808255809150506001900390600052602060002001600090919091909150908051906020019061200d929190612bf6565b508060405161201c91906139a4565b60405180910390207f2516508dd88ecc6d3032b7c5fdf30eda8b45a8907e27fd70bdb576255ca73d88336040516120539190612dd8565b60405180910390a250565b601360003373ffffffffffffffffffffffffffffffffffffffff1673ffffffffffffffffffffffffffffffffffffffff16815260200190815260200160002060009054906101000a900460ff166120ea576040517f08c379a00000000000000000000000000000000000000000000000000000000081526004016120e19061365d565b60405180910390fd5b600115156010600083815260200190815260200160002060009054906101000a900460ff16151514612151576040517f08c379a000000000000000000000000000000000000000000000000000000000815260040161214890613ba1565b60405180910390fd5b8060088190555050565b600b60009054906101000a900473ffffffffffffffffffffffffffffffffffffffff1681565b6017818154811061219157600080fd5b9060005260206000200160009150905080546121ac9061354d565b80601f01602080910402602001604051908101604052809291908181526020018280546121d89061354d565b80156122255780601f106121fa57610100808354040283529160200191612225565b820191906000526020600020905b81548152906001019060200180831161220857829003601f168201915b505050505081565b612235612c7c565b61223d612c7c565b61225485858584612390909392919063ffffffff16565b9150509392505050565b61227582846080015161244090919063ffffffff16565b61228c81846080015161244090919063ffffffff16565b505050565b6122a882846080015161244090919063ffffffff16565b6122bf81846080015161246590919063ffffffff16565b505050565b60008060045490506001816122d99190613a27565b6004819055506000634042994660e01b60008087600001513089604001518760018c608001516000015160405160240161231a989796959493929190613c51565b604051602081830303815290604052907bffffffffffffffffffffffffffffffffffffffffffffffffffffffff19166020820180517bffffffffffffffffffffffffffffffffffffffffffffffffffffffff8381831617835250505050905061238586838684612512565b925050509392505050565b612398612c7c565b6123a885608001516101006126a7565b508385600001818152505082856020019073ffffffffffffffffffffffffffffffffffffffff16908173ffffffffffffffffffffffffffffffffffffffff16815250508185604001907bffffffffffffffffffffffffffffffffffffffffffffffffffffffff191690817bffffffffffffffffffffffffffffffffffffffffffffffffffffffff191681525050849050949350505050565b61244d8260038351612711565b612460818361289690919063ffffffff16565b505050565b7fffffffffffffffffffffffffffffffffffffffffffffffff000000000000000081121561249c5761249782826128b8565b61250e565b67ffffffffffffffff8113156124bb576124b6828261292f565b61250d565b600081126124d4576124cf82600083612711565b61250c565b61250b826001837fffffffffffffffffffffffffffffffffffffffffffffffffffffffffffffffff6125069190613ce0565b612711565b5b5b5b5050565b60003084604051602001612527929190613e2d565b604051602081830303815290604052805190602001209050846005600083815260200190815260200160002060006101000a81548173ffffffffffffffffffffffffffffffffffffffff021916908373ffffffffffffffffffffffffffffffffffffffff160217905550807fb5e6e01e79f91267dc17b4e6314d5d4d03593d2ceee0fbb452b750bd70ea5af960405160405180910390a2600260009054906101000a900473ffffffffffffffffffffffffffffffffffffffff1673ffffffffffffffffffffffffffffffffffffffff16634000aea08685856040518463ffffffff1660e01b815260040161261d93929190613e59565b6020604051808303816000875af115801561263c573d6000803e3d6000fd5b505050506040513d601f19601f820116820180604052508101906126609190613ec3565b61269f576040517f08c379a000000000000000000000000000000000000000000000000000000000815260040161269690613f62565b60405180910390fd5b949350505050565b6126af612ce9565b60006020836126be9190613fb1565b146126ea576020826126d09190613fb1565b60206126dc9190613fe2565b826126e79190613a27565b91505b81836020018181525050604051808452600081528281016020016040525082905092915050565b60178167ffffffffffffffff1611612748576127428160058460ff16901b60ff16178461297b90919063ffffffff16565b50612891565b60ff8167ffffffffffffffff161161279e57612777601860058460ff16901b178461297b90919063ffffffff16565b506127988167ffffffffffffffff1660018561299b9092919063ffffffff16565b50612890565b61ffff8167ffffffffffffffff16116127f5576127ce601960058460ff16901b178461297b90919063ffffffff16565b506127ef8167ffffffffffffffff1660028561299b9092919063ffffffff16565b5061288f565b63ffffffff8167ffffffffffffffff161161284e57612827601a60058460ff16901b178461297b90919063ffffffff16565b506128488167ffffffffffffffff1660048561299b9092919063ffffffff16565b5061288e565b61286b601b60058460ff16901b178461297b90919063ffffffff16565b5061288c8167ffffffffffffffff1660088561299b9092919063ffffffff16565b505b5b5b5b505050565b61289e612ce9565b6128b0838460000151518485516129bd565b905092915050565b6128d660036005600660ff16901b178361297b90919063ffffffff16565b5061292b82827fffffffffffffffffffffffffffffffffffffffffffffffffffffffffffffffff6129079190613ce0565b60405160200161291791906132a0565b604051602081830303815290604052612aac565b5050565b61294d60026005600660ff16901b178361297b90919063ffffffff16565b50612977828260405160200161296391906132a0565b604051602081830303815290604052612aac565b5050565b612983612ce9565b6129938384600001515184612ad1565b905092915050565b6129a3612ce9565b6129b4848560000151518585612b28565b90509392505050565b6129c5612ce9565b82518211156129d357600080fd5b846020015182856129e49190613a27565b1115612a1957612a18856002612a0988602001518887612a049190613a27565b612bb6565b612a1391906137ca565b612bd2565b5b600080865180518760208301019350808887011115612a385787860182525b60208701925050505b60208410612a7f5780518252602082612a5a9190613a27565b9150602081612a699190613a27565b9050602084612a789190613fe2565b9350612a41565b60006001856020036101000a03905080198251168184511681811785525050508692505050949350505050565b612ab98260028351612711565b612acc818361289690919063ffffffff16565b505050565b612ad9612ce9565b83602001518310612aff57612afe8460028660200151612af991906137ca565b612bd2565b5b8351805160208583010184815381861415612b1b576001820183525b5050508390509392505050565b612b30612ce9565b84602001518483612b419190613a27565b1115612b6957612b688560028685612b599190613a27565b612b6391906137ca565b612bd2565b5b6000600183610100612b7b9190614149565b612b859190613fe2565b90508551838682010185831982511617815281518588011115612ba85784870182525b505085915050949350505050565b600081831115612bc857829050612bcc565b8190505b92915050565b600082600001519050612be583836126a7565b50612bf08382612896565b50505050565b828054612c029061354d565b90600052602060002090601f016020900481019282612c245760008555612c6b565b82601f10612c3d57805160ff1916838001178555612c6b565b82800160010185558215612c6b579182015b82811115612c6a578251825591602001919060010190612c4f565b5b509050612c789190612d03565b5090565b6040518060a0016040528060008019168152602001600073ffffffffffffffffffffffffffffffffffffffff16815260200160007bffffffffffffffffffffffffffffffffffffffffffffffffffffffff1916815260200160008152602001612ce3612ce9565b81525090565b604051806040016040528060608152602001600081525090565b5b80821115612d1c576000816000905550600101612d04565b5090565b6000604051905090565b600080fd5b600080fd5b6000819050919050565b612d4781612d34565b8114612d5257600080fd5b50565b600081359050612d6481612d3e565b92915050565b600060208284031215612d8057612d7f612d2a565b5b6000612d8e84828501612d55565b91505092915050565b600073ffffffffffffffffffffffffffffffffffffffff82169050919050565b6000612dc282612d97565b9050919050565b612dd281612db7565b82525050565b6000602082019050612ded6000830184612dc9565b92915050565b600081519050919050565b600082825260208201905092915050565b6000819050602082019050919050565b600081519050919050565b600082825260208201905092915050565b60005b83811015612e59578082015181840152602081019050612e3e565b83811115612e68576000848401525b50505050565b6000601f19601f8301169050919050565b6000612e8a82612e1f565b612e948185612e2a565b9350612ea4818560208601612e3b565b612ead81612e6e565b840191505092915050565b6000612ec48383612e7f565b905092915050565b6000602082019050919050565b6000612ee482612df3565b612eee8185612dfe565b935083602082028501612f0085612e0f565b8060005b85811015612f3c5784840389528151612f1d8582612eb8565b9450612f2883612ecc565b925060208a01995050600181019050612f04565b50829750879550505050505092915050565b60006020820190508181036000830152612f688184612ed9565b905092915050565b6000819050919050565b612f8381612f70565b82525050565b6000602082019050612f9e6000830184612f7a565b92915050565b600080fd5b600080fd5b7f4e487b7100000000000000000000000000000000000000000000000000000000600052604160045260246000fd5b612fe682612e6e565b810181811067ffffffffffffffff8211171561300557613004612fae565b5b80604052505050565b6000613018612d20565b90506130248282612fdd565b919050565b600067ffffffffffffffff82111561304457613043612fae565b5b61304d82612e6e565b9050602081019050919050565b82818337600083830152505050565b600061307c61307784613029565b61300e565b90508281526020810184848401111561309857613097612fa9565b5b6130a384828561305a565b509392505050565b600082601f8301126130c0576130bf612fa4565b5b81356130d0848260208601613069565b91505092915050565b6000602082840312156130ef576130ee612d2a565b5b600082013567ffffffffffffffff81111561310d5761310c612d2f565b5b613119848285016130ab565b91505092915050565b60008115159050919050565b61313781613122565b82525050565b6000602082019050613152600083018461312e565b92915050565b61316181612db7565b811461316c57600080fd5b50565b60008135905061317e81613158565b92915050565b60006020828403121561319a57613199612d2a565b5b60006131a88482850161316f565b91505092915050565b600081519050919050565b600082825260208201905092915050565b6000819050602082019050919050565b6131e681612f70565b82525050565b60006131f883836131dd565b60208301905092915050565b6000602082019050919050565b600061321c826131b1565b61322681856131bc565b9350613231836131cd565b8060005b8381101561326257815161324988826131ec565b975061325483613204565b925050600181019050613235565b5085935050505092915050565b600060208201905081810360008301526132898184613211565b905092915050565b61329a81612d34565b82525050565b60006020820190506132b56000830184613291565b92915050565b600082825260208201905092915050565b60006132d782612e1f565b6132e181856132bb565b93506132f1818560208601612e3b565b6132fa81612e6e565b840191505092915050565b6000602082019050818103600083015261331f81846132cc565b905092915050565b600081519050919050565b600082825260208201905092915050565b6000819050602082019050919050565b61335c81612db7565b82525050565b600061336e8383613353565b60208301905092915050565b6000602082019050919050565b600061339282613327565b61339c8185613332565b93506133a783613343565b8060005b838110156133d85781516133bf8882613362565b97506133ca8361337a565b9250506001810190506133ab565b5085935050505092915050565b600060208201905081810360008301526133ff8184613387565b905092915050565b61341081612f70565b811461341b57600080fd5b50565b60008135905061342d81613407565b92915050565b6000806040838503121561344a57613449612d2a565b5b60006134588582860161341e565b925050602061346985828601612d55565b9150509250929050565b60006020828403121561348957613488612d2a565b5b60006134978482850161341e565b91505092915050565b60006134ab82612d97565b9050919050565b6134bb816134a0565b81146134c657600080fd5b50565b6000813590506134d8816134b2565b92915050565b600080604083850312156134f5576134f4612d2a565b5b6000613503858286016134c9565b925050602061351485828601612d55565b9150509250929050565b7f4e487b7100000000000000000000000000000000000000000000000000000000600052602260045260246000fd5b6000600282049050600182168061356557607f821691505b602082108114156135795761357861351e565b5b50919050565b7f536f75726365206d75737420626520746865206f7261636c65206f662074686560008201527f2072657175657374000000000000000000000000000000000000000000000000602082015250565b60006135db6028836132bb565b91506135e68261357f565b604082019050919050565b6000602082019050818103600083015261360a816135ce565b9050919050565b7f756e617574686f72697a65640000000000000000000000000000000000000000600082015250565b6000613647600c836132bb565b915061365282613611565b602082019050919050565b600060208201905081810360008301526136768161363a565b9050919050565b7f616d6f756e742065786365656473000000000000000000000000000000000000600082015250565b60006136b3600e836132bb565b91506136be8261367d565b602082019050919050565b600060208201905081810360008301526136e2816136a6565b9050919050565b600081905092915050565b50565b60006137046000836136e9565b915061370f826136f4565b600082019050919050565b6000613725826136f7565b9150819050919050565b7f7472616e73616374696f6e206661696c65640000000000000000000000000000600082015250565b60006137656012836132bb565b91506137708261372f565b602082019050919050565b6000602082019050818103600083015261379481613758565b9050919050565b7f4e487b7100000000000000000000000000000000000000000000000000000000600052601160045260246000fd5b60006137d582612d34565b91506137e083612d34565b9250817fffffffffffffffffffffffffffffffffffffffffffffffffffffffffffffffff04831182151516156138195761381861379b565b5b828202905092915050565b7f6f776e657220616c726561647920616464656400000000000000000000000000600082015250565b600061385a6013836132bb565b915061386582613824565b602082019050919050565b600060208201905081810360008301526138898161384d565b9050919050565b7f596f752068617665206e6f742061646465642074686973206f7261636c650000600082015250565b60006138c6601e836132bb565b91506138d182613890565b602082019050919050565b600060208201905081810360008301526138f5816138b9565b9050919050565b7f4a6f6220616c7265616479206164646564000000000000000000000000000000600082015250565b60006139326011836132bb565b915061393d826138fc565b602082019050919050565b6000602082019050818103600083015261396181613925565b9050919050565b600081905092915050565b600061397e82612e1f565b6139888185613968565b9350613998818560208601612e3b565b80840191505092915050565b60006139b08284613973565b915081905092915050565b7f7061746820616c72656164792065786973747300000000000000000000000000600082015250565b60006139f16013836132bb565b91506139fc826139bb565b602082019050919050565b60006020820190508181036000830152613a20816139e4565b9050919050565b6000613a3282612d34565b9150613a3d83612d34565b9250827fffffffffffffffffffffffffffffffffffffffffffffffffffffffffffffffff03821115613a7257613a7161379b565b5b828201905092915050565b7f4f7261636c6520616c7265616479206164646564000000000000000000000000600082015250565b6000613ab36014836132bb565b9150613abe82613a7d565b602082019050919050565b60006020820190508181036000830152613ae281613aa6565b9050919050565b7f75726c20616c7265616479206164646564000000000000000000000000000000600082015250565b6000613b1f6011836132bb565b9150613b2a82613ae9565b602082019050919050565b60006020820190508181036000830152613b4e81613b12565b9050919050565b7f596f752068617665206e6f742061646465642074686973206a6f620000000000600082015250565b6000613b8b601b836132bb565b9150613b9682613b55565b602082019050919050565b60006020820190508181036000830152613bba81613b7e565b9050919050565b60007fffffffff0000000000000000000000000000000000000000000000000000000082169050919050565b613bf681613bc1565b82525050565b600081519050919050565b600082825260208201905092915050565b6000613c2382613bfc565b613c2d8185613c07565b9350613c3d818560208601612e3b565b613c4681612e6e565b840191505092915050565b600061010082019050613c67600083018b612dc9565b613c74602083018a613291565b613c816040830189612f7a565b613c8e6060830188612dc9565b613c9b6080830187613bed565b613ca860a0830186613291565b613cb560c0830185613291565b81810360e0830152613cc78184613c18565b90509998505050505050505050565b6000819050919050565b6000613ceb82613cd6565b9150613cf683613cd6565b9250827f800000000000000000000000000000000000000000000000000000000000000001821260008412151615613d3157613d3061379b565b5b827f7fffffffffffffffffffffffffffffffffffffffffffffffffffffffffffffff018213600084121615613d6957613d6861379b565b5b828203905092915050565b6000819050919050565b6000613d99613d94613d8f84612d97565b613d74565b612d97565b9050919050565b6000613dab82613d7e565b9050919050565b6000613dbd82613da0565b9050919050565b60008160601b9050919050565b6000613ddc82613dc4565b9050919050565b6000613dee82613dd1565b9050919050565b613e06613e0182613db2565b613de3565b82525050565b6000819050919050565b613e27613e2282612d34565b613e0c565b82525050565b6000613e398285613df5565b601482019150613e498284613e16565b6020820191508190509392505050565b6000606082019050613e6e6000830186612dc9565b613e7b6020830185613291565b8181036040830152613e8d8184613c18565b9050949350505050565b613ea081613122565b8114613eab57600080fd5b50565b600081519050613ebd81613e97565b92915050565b600060208284031215613ed957613ed8612d2a565b5b6000613ee784828501613eae565b91505092915050565b7f756e61626c6520746f207472616e73666572416e6443616c6c20746f206f726160008201527f636c650000000000000000000000000000000000000000000000000000000000602082015250565b6000613f4c6023836132bb565b9150613f5782613ef0565b604082019050919050565b60006020820190508181036000830152613f7b81613f3f565b9050919050565b7f4e487b7100000000000000000000000000000000000000000000000000000000600052601260045260246000fd5b6000613fbc82612d34565b9150613fc783612d34565b925082613fd757613fd6613f82565b5b828206905092915050565b6000613fed82612d34565b9150613ff883612d34565b92508282101561400b5761400a61379b565b5b828203905092915050565b60008160011c9050919050565b6000808291508390505b600185111561406d578086048111156140495761404861379b565b5b60018516156140585780820291505b808102905061406685614016565b945061402d565b94509492505050565b6000826140865760019050614142565b816140945760009050614142565b81600181146140aa57600281146140b4576140e3565b6001915050614142565b60ff8411156140c6576140c561379b565b5b8360020a9150848211156140dd576140dc61379b565b5b50614142565b5060208310610133831016604e8410600b84101617156141185782820a9050838111156141135761411261379b565b5b614142565b6141258484846001614023565b9250905081840481111561413c5761413b61379b565b5b81810290505b9392505050565b600061415482612d34565b915061415f83612d34565b925061418c7fffffffffffffffffffffffffffffffffffffffffffffffffffffffffffffffff8484614076565b90509291505056fea2646970667358221220cee623ed65bd196dcdd27d6b943c0272acb77e19a30d5f9db3879301916bb61564736f6c634300080a0033",
  "linkReferences": {},
  "deployedLinkReferences": {}
}