{
  "_format": "hh-sol-artifact-1",
  "contractName": "CallConsume",
  "sourceName": "contracts/CallConsume.sol",
  "abi": [
    {
      "anonymous": false,
      "inputs": [
        {
          "indexed": true,
          "internalType": "bytes32",
          "name": "id",
          "type": "bytes32"
        }
      ],
      "name": "ChainlinkCancelled",
      "type": "event"
    },
    {
      "anonymous": false,
      "inputs": [
        {
          "indexed": true,
          "internalType": "bytes32",
          "name": "id",
          "type": "bytes32"
        }
      ],
      "name": "ChainlinkFulfilled",
      "type": "event"
    },
    {
      "anonymous": false,
      "inputs": [
        {
          "indexed": true,
          "internalType": "bytes32",
          "name": "id",
          "type": "bytes32"
        }
      ],
      "name": "ChainlinkRequested",
      "type": "event"
    },
    {
      "anonymous": false,
      "inputs": [
        {
          "indexed": false,
          "internalType": "address",
          "name": "_owner",
          "type": "address"
        },
        {
          "indexed": true,
          "internalType": "bytes32",
          "name": "_Job",
          "type": "bytes32"
        }
      ],
      "name": "JobAdd",
      "type": "event"
    },
    {
      "anonymous": false,
      "inputs": [
        {
          "indexed": false,
          "internalType": "address",
          "name": "_owner",
          "type": "address"
        },
        {
          "indexed": true,
          "internalType": "address",
          "name": "_oracleAddress",
          "type": "address"
        }
      ],
      "name": "OracleAdd",
      "type": "event"
    },
    {
      "anonymous": false,
      "inputs": [
        {
          "indexed": false,
          "internalType": "address",
          "name": "_owner",
          "type": "address"
        },
        {
          "indexed": true,
          "internalType": "address",
          "name": "_newOwner",
          "type": "address"
        }
      ],
      "name": "OwnerAdd",
      "type": "event"
    },
    {
      "anonymous": false,
      "inputs": [
        {
          "indexed": false,
          "internalType": "address",
          "name": "_owner",
          "type": "address"
        },
        {
          "indexed": true,
          "internalType": "string",
          "name": "_path",
          "type": "string"
        }
      ],
      "name": "PathAdd",
      "type": "event"
    },
    {
      "anonymous": false,
      "inputs": [
        {
          "indexed": false,
          "internalType": "address",
          "name": "_owner",
          "type": "address"
        },
        {
          "indexed": true,
          "internalType": "string",
          "name": "_url",
          "type": "string"
        }
      ],
      "name": "UrlAdd",
      "type": "event"
    },
    {
      "inputs": [
        {
          "internalType": "bytes32",
          "name": "_jobId",
          "type": "bytes32"
        }
      ],
      "name": "addJob",
      "outputs": [],
      "stateMutability": "nonpayable",
      "type": "function"
    },
    {
      "inputs": [
        {
          "internalType": "address",
          "name": "_oracleAddr",
          "type": "address"
        }
      ],
      "name": "addOracle",
      "outputs": [],
      "stateMutability": "nonpayable",
      "type": "function"
    },
    {
      "inputs": [
        {
          "internalType": "address",
          "name": "_newOwner",
          "type": "address"
        }
      ],
      "name": "addOwner",
      "outputs": [],
      "stateMutability": "nonpayable",
      "type": "function"
    },
    {
      "inputs": [
        {
          "internalType": "string",
          "name": "_path",
          "type": "string"
        }
      ],
      "name": "addPath",
      "outputs": [],
      "stateMutability": "nonpayable",
      "type": "function"
    },
    {
      "inputs": [
        {
          "internalType": "string",
          "name": "_url",
          "type": "string"
        }
      ],
      "name": "addUrl",
      "outputs": [],
      "stateMutability": "nonpayable",
      "type": "function"
    },
    {
      "inputs": [
        {
          "internalType": "contract CallConsume",
          "name": "_addr",
          "type": "address"
        }
      ],
      "name": "callPi",
      "outputs": [
        {
          "internalType": "uint256",
          "name": "",
          "type": "uint256"
        }
      ],
      "stateMutability": "view",
      "type": "function"
    },
    {
      "inputs": [],
      "name": "data",
      "outputs": [
        {
          "internalType": "uint256",
          "name": "",
          "type": "uint256"
        }
      ],
      "stateMutability": "view",
      "type": "function"
    },
    {
      "inputs": [],
      "name": "depositLink",
      "outputs": [],
      "stateMutability": "payable",
      "type": "function"
    },
    {
      "inputs": [],
      "name": "fee",
      "outputs": [
        {
          "internalType": "uint256",
          "name": "",
          "type": "uint256"
        }
      ],
      "stateMutability": "view",
      "type": "function"
    },
    {
      "inputs": [
        {
          "internalType": "bytes32",
          "name": "_requestId",
          "type": "bytes32"
        },
        {
          "internalType": "uint256",
          "name": "_data",
          "type": "uint256"
        }
      ],
      "name": "fulfill",
      "outputs": [],
      "stateMutability": "nonpayable",
      "type": "function"
    },
    {
      "inputs": [],
      "name": "getData",
      "outputs": [
        {
          "internalType": "uint256",
          "name": "",
          "type": "uint256"
        }
      ],
      "stateMutability": "view",
      "type": "function"
    },
    {
      "inputs": [],
      "name": "getFee",
      "outputs": [
        {
          "internalType": "uint256",
          "name": "",
          "type": "uint256"
        }
      ],
      "stateMutability": "view",
      "type": "function"
    },
    {
      "inputs": [],
      "name": "getJob",
      "outputs": [
        {
          "internalType": "bytes32",
          "name": "",
          "type": "bytes32"
        }
      ],
      "stateMutability": "view",
      "type": "function"
    },
    {
      "inputs": [],
      "name": "getOracle",
      "outputs": [
        {
          "internalType": "address",
          "name": "",
          "type": "address"
        }
      ],
      "stateMutability": "view",
      "type": "function"
    },
    {
      "inputs": [],
      "name": "getOracles",
      "outputs": [
        {
          "internalType": "address[]",
          "name": "",
          "type": "address[]"
        }
      ],
      "stateMutability": "view",
      "type": "function"
    },
    {
      "inputs": [],
      "name": "getOwners",
      "outputs": [
        {
          "internalType": "address[]",
          "name": "",
          "type": "address[]"
        }
      ],
      "stateMutability": "view",
      "type": "function"
    },
    {
      "inputs": [],
      "name": "getPaths",
      "outputs": [
        {
          "internalType": "string[]",
          "name": "",
          "type": "string[]"
        }
      ],
      "stateMutability": "view",
      "type": "function"
    },
    {
      "inputs": [],
      "name": "getUrls",
      "outputs": [
        {
          "internalType": "string[]",
          "name": "",
          "type": "string[]"
        }
      ],
      "stateMutability": "view",
      "type": "function"
    },
    {
      "inputs": [],
      "name": "getjobs",
      "outputs": [
        {
          "internalType": "bytes32[]",
          "name": "",
          "type": "bytes32[]"
        }
      ],
      "stateMutability": "view",
      "type": "function"
    },
    {
      "inputs": [
        {
          "internalType": "address",
          "name": "",
          "type": "address"
        }
      ],
      "name": "isOwner",
      "outputs": [
        {
          "internalType": "bool",
          "name": "",
          "type": "bool"
        }
      ],
      "stateMutability": "view",
      "type": "function"
    },
    {
      "inputs": [
        {
          "internalType": "bytes32",
          "name": "",
          "type": "bytes32"
        }
      ],
      "name": "jobAuth",
      "outputs": [
        {
          "internalType": "bool",
          "name": "",
          "type": "bool"
        }
      ],
      "stateMutability": "view",
      "type": "function"
    },
    {
      "inputs": [],
      "name": "jobId",
      "outputs": [
        {
          "internalType": "bytes32",
          "name": "",
          "type": "bytes32"
        }
      ],
      "stateMutability": "view",
      "type": "function"
    },
    {
      "inputs": [
        {
          "internalType": "uint256",
          "name": "",
          "type": "uint256"
        }
      ],
      "name": "jobs",
      "outputs": [
        {
          "internalType": "bytes32",
          "name": "",
          "type": "bytes32"
        }
      ],
      "stateMutability": "view",
      "type": "function"
    },
    {
      "inputs": [],
      "name": "oracle",
      "outputs": [
        {
          "internalType": "address",
          "name": "",
          "type": "address"
        }
      ],
      "stateMutability": "view",
      "type": "function"
    },
    {
      "inputs": [
        {
          "internalType": "address",
          "name": "",
          "type": "address"
        }
      ],
      "name": "oracleAuth",
      "outputs": [
        {
          "internalType": "bool",
          "name": "",
          "type": "bool"
        }
      ],
      "stateMutability": "view",
      "type": "function"
    },
    {
      "inputs": [
        {
          "internalType": "uint256",
          "name": "",
          "type": "uint256"
        }
      ],
      "name": "oracles",
      "outputs": [
        {
          "internalType": "address",
          "name": "",
          "type": "address"
        }
      ],
      "stateMutability": "view",
      "type": "function"
    },
    {
      "inputs": [],
      "name": "owner",
      "outputs": [
        {
          "internalType": "address",
          "name": "",
          "type": "address"
        }
      ],
      "stateMutability": "view",
      "type": "function"
    },
    {
      "inputs": [
        {
          "internalType": "uint256",
          "name": "",
          "type": "uint256"
        }
      ],
      "name": "owners",
      "outputs": [
        {
          "internalType": "address",
          "name": "",
          "type": "address"
        }
      ],
      "stateMutability": "view",
      "type": "function"
    },
    {
      "inputs": [],
      "name": "path",
      "outputs": [
        {
          "internalType": "string",
          "name": "",
          "type": "string"
        }
      ],
      "stateMutability": "view",
      "type": "function"
    },
    {
      "inputs": [
        {
          "internalType": "string",
          "name": "",
          "type": "string"
        }
      ],
      "name": "pathExists",
      "outputs": [
        {
          "internalType": "bool",
          "name": "",
          "type": "bool"
        }
      ],
      "stateMutability": "view",
      "type": "function"
    },
    {
      "inputs": [
        {
          "internalType": "uint256",
          "name": "",
          "type": "uint256"
        }
      ],
      "name": "paths",
      "outputs": [
        {
          "internalType": "string",
          "name": "",
          "type": "string"
        }
      ],
      "stateMutability": "view",
      "type": "function"
    },
    {
      "inputs": [],
      "name": "requestData",
      "outputs": [
        {
          "internalType": "bytes32",
          "name": "requestId",
          "type": "bytes32"
        }
      ],
      "stateMutability": "nonpayable",
      "type": "function"
    },
    {
      "inputs": [
        {
          "internalType": "uint256",
          "name": "_rate",
          "type": "uint256"
        }
      ],
      "name": "setFee",
      "outputs": [],
      "stateMutability": "nonpayable",
      "type": "function"
    },
    {
      "inputs": [
        {
          "internalType": "bytes32",
          "name": "_jobId",
          "type": "bytes32"
        }
      ],
      "name": "setJob",
      "outputs": [],
      "stateMutability": "nonpayable",
      "type": "function"
    },
    {
      "inputs": [
        {
          "internalType": "address",
          "name": "_oracleAddr",
          "type": "address"
        }
      ],
      "name": "setOracle",
      "outputs": [],
      "stateMutability": "nonpayable",
      "type": "function"
    },
    {
      "inputs": [],
      "name": "token",
      "outputs": [
        {
          "internalType": "address",
          "name": "",
          "type": "address"
        }
      ],
      "stateMutability": "view",
      "type": "function"
    },
    {
      "inputs": [],
      "name": "totalValue",
      "outputs": [
        {
          "internalType": "uint256",
          "name": "",
          "type": "uint256"
        }
      ],
      "stateMutability": "view",
      "type": "function"
    },
    {
      "inputs": [],
      "name": "url",
      "outputs": [
        {
          "internalType": "string",
          "name": "",
          "type": "string"
        }
      ],
      "stateMutability": "view",
      "type": "function"
    },
    {
      "inputs": [
        {
          "internalType": "string",
          "name": "",
          "type": "string"
        }
      ],
      "name": "urlAuth",
      "outputs": [
        {
          "internalType": "bool",
          "name": "",
          "type": "bool"
        }
      ],
      "stateMutability": "view",
      "type": "function"
    },
    {
      "inputs": [
        {
          "internalType": "uint256",
          "name": "",
          "type": "uint256"
        }
      ],
      "name": "urls",
      "outputs": [
        {
          "internalType": "string",
          "name": "",
          "type": "string"
        }
      ],
      "stateMutability": "view",
      "type": "function"
    },
    {
      "inputs": [
        {
          "internalType": "address payable",
          "name": "_to",
          "type": "address"
        },
        {
          "internalType": "uint256",
          "name": "_amount",
          "type": "uint256"
        }
      ],
      "name": "withdrawLink",
      "outputs": [],
      "stateMutability": "nonpayable",
      "type": "function"
    }
  ],
  "bytecode": "0x608060405260016004553480156200001657600080fd5b506200003c7301be23585060835e02b77ef475b0cc51aa1e07096200010e60201b60201c565b33600a60006101000a81548173ffffffffffffffffffffffffffffffffffffffff021916908373ffffffffffffffffffffffffffffffffffffffff16021790555073ee04451ac26bb7fe0fa1596db06df7fbfef5bd91600760006101000a81548173ffffffffffffffffffffffffffffffffffffffff021916908373ffffffffffffffffffffffffffffffffffffffff1602179055507f393138363265643535333638343965366264643136626335343066323038386660088190555067016345785d8a000060098190555062000152565b80600260006101000a81548173ffffffffffffffffffffffffffffffffffffffff021916908373ffffffffffffffffffffffffffffffffffffffff16021790555050565b61433c80620001626000396000f3fe6080604052600436106102465760003560e01c80637adbf97311610139578063ced72f87116100b6578063ddca3f431161007a578063ddca3f43146108b1578063df5dd1a5146108dc578063eb55787c14610905578063f846daaf1461092e578063fc0c546a14610957578063fc1bcd491461098257610246565b8063ced72f87146107fb578063d1bbf36214610826578063d4c3eea014610830578063da06e07f1461085b578063dd28e14d1461088657610246565b80639781b96c116100fd5780639781b96c14610716578063a0e67e2b1461073f578063a9e10e8a1461076a578063c2939d97146107a7578063cc71b30f146107d257610246565b80637adbf9731461062f5780637dc0d1d014610658578063833b1fce146106835780638da5cb5b146106ae5780639079b46d146106d957610246565b80634357855e116101c7578063606deecd1161018b578063606deecd1461054a57806369fe0e2d146105755780637065cb481461059e57806373d4a13a146105c7578063796676be146105f257610246565b80634357855e1461045357806347414d5e1461047c57806354b7faae146104b95780635600f04f146104e25780635b69a7d81461050d57610246565b80633a953e291161020e5780633a953e291461036a5780633bc5de30146103955780633dc06356146103c05780633ee6265f146103eb57806340884c521461042857610246565b8063025e7c271461024b5780631767ae3314610288578063180aedf3146102b35780632ae22761146102f05780632f54bf6e1461032d575b600080fd5b34801561025757600080fd5b50610272600480360381019061026d9190612e2f565b6109bf565b60405161027f9190612e9d565b60405180910390f35b34801561029457600080fd5b5061029d6109fe565b6040516102aa9190613013565b60405180910390f35b3480156102bf57600080fd5b506102da60048036038101906102d59190612e2f565b610ad7565b6040516102e7919061304e565b60405180910390f35b3480156102fc57600080fd5b506103176004803603810190610312919061319e565b610afb565b6040516103249190613202565b60405180910390f35b34801561033957600080fd5b50610354600480360381019061034f9190613249565b610b31565b6040516103619190613202565b60405180910390f35b34801561037657600080fd5b5061037f610b51565b60405161038c9190613334565b60405180910390f35b3480156103a157600080fd5b506103aa610ba9565b6040516103b79190613365565b60405180910390f35b3480156103cc57600080fd5b506103d5610bb3565b6040516103e291906133ca565b60405180910390f35b3480156103f757600080fd5b50610412600480360381019061040d9190613249565b610c41565b60405161041f9190613202565b60405180910390f35b34801561043457600080fd5b5061043d610c61565b60405161044a91906134aa565b60405180910390f35b34801561045f57600080fd5b5061047a600480360381019061047591906134f8565b610cef565b005b34801561048857600080fd5b506104a3600480360381019061049e9190613538565b610e00565b6040516104b09190613202565b60405180910390f35b3480156104c557600080fd5b506104e060048036038101906104db91906135a3565b610e20565b005b3480156104ee57600080fd5b506104f7610fa1565b60405161050491906133ca565b60405180910390f35b34801561051957600080fd5b50610534600480360381019061052f9190612e2f565b61102f565b6040516105419190612e9d565b60405180910390f35b34801561055657600080fd5b5061055f61106e565b60405161056c919061304e565b60405180910390f35b34801561058157600080fd5b5061059c60048036038101906105979190612e2f565b611212565b005b3480156105aa57600080fd5b506105c560048036038101906105c09190613249565b6112bb565b005b3480156105d357600080fd5b506105dc611491565b6040516105e99190613365565b60405180910390f35b3480156105fe57600080fd5b5061061960048036038101906106149190612e2f565b611497565b60405161062691906133ca565b60405180910390f35b34801561063b57600080fd5b5061065660048036038101906106519190613249565b611543565b005b34801561066457600080fd5b5061066d6116a6565b60405161067a9190612e9d565b60405180910390f35b34801561068f57600080fd5b506106986116cc565b6040516106a59190612e9d565b60405180910390f35b3480156106ba57600080fd5b506106c36116f6565b6040516106d09190612e9d565b60405180910390f35b3480156106e557600080fd5b5061070060048036038101906106fb919061319e565b61171c565b60405161070d9190613202565b60405180910390f35b34801561072257600080fd5b5061073d60048036038101906107389190613538565b611752565b005b34801561074b57600080fd5b506107546118dc565b60405161076191906134aa565b60405180910390f35b34801561077657600080fd5b50610791600480360381019061078c9190613621565b61196a565b60405161079e9190613365565b60405180910390f35b3480156107b357600080fd5b506107bc6119e7565b6040516107c9919061304e565b60405180910390f35b3480156107de57600080fd5b506107f960048036038101906107f4919061319e565b6119ed565b005b34801561080757600080fd5b50610810611bc8565b60405161081d9190613365565b60405180910390f35b61082e611bd2565b005b34801561083c57600080fd5b50610845611bed565b6040516108529190613365565b60405180910390f35b34801561086757600080fd5b50610870611bf3565b60405161087d9190613013565b60405180910390f35b34801561089257600080fd5b5061089b611ccc565b6040516108a8919061304e565b60405180910390f35b3480156108bd57600080fd5b506108c6611cd6565b6040516108d39190613365565b60405180910390f35b3480156108e857600080fd5b5061090360048036038101906108fe9190613249565b611cdc565b005b34801561091157600080fd5b5061092c6004803603810190610927919061319e565b611f48565b005b34801561093a57600080fd5b5061095560048036038101906109509190613538565b612123565b005b34801561096357600080fd5b5061096c612220565b6040516109799190612e9d565b60405180910390f35b34801561098e57600080fd5b506109a960048036038101906109a49190612e2f565b612246565b6040516109b691906133ca565b60405180910390f35b601881815481106109cf57600080fd5b906000526020600020016000915054906101000a900473ffffffffffffffffffffffffffffffffffffffff1681565b60606017805480602002602001604051908101604052809291908181526020016000905b82821015610ace578382906000526020600020018054610a419061367d565b80601f0160208091040260200160405190810160405280929190818152602001828054610a6d9061367d565b8015610aba5780601f10610a8f57610100808354040283529160200191610aba565b820191906000526020600020905b815481529060010190602001808311610a9d57829003601f168201915b505050505081526020019060010190610a22565b50505050905090565b60148181548110610ae757600080fd5b906000526020600020016000915090505481565b6011818051602081018201805184825260208301602085012081835280955050505050506000915054906101000a900460ff1681565b60136020528060005260406000206000915054906101000a900460ff1681565b60606014805480602002602001604051908101604052809291908181526020018280548015610b9f57602002820191906000526020600020905b815481526020019060010190808311610b8b575b5050505050905090565b6000600654905090565b600d8054610bc09061367d565b80601f0160208091040260200160405190810160405280929190818152602001828054610bec9061367d565b8015610c395780601f10610c0e57610100808354040283529160200191610c39565b820191906000526020600020905b815481529060010190602001808311610c1c57829003601f168201915b505050505081565b600f6020528060005260406000206000915054906101000a900460ff1681565b60606015805480602002602001604051908101604052809291908181526020018280548015610ce557602002820191906000526020600020905b8160009054906101000a900473ffffffffffffffffffffffffffffffffffffffff1673ffffffffffffffffffffffffffffffffffffffff1681526020019060010190808311610c9b575b5050505050905090565b816005600082815260200190815260200160002060009054906101000a900473ffffffffffffffffffffffffffffffffffffffff1673ffffffffffffffffffffffffffffffffffffffff163373ffffffffffffffffffffffffffffffffffffffff1614610d91576040517f08c379a0000000000000000000000000000000000000000000000000000000008152600401610d8890613721565b60405180910390fd5b6005600082815260200190815260200160002060006101000a81549073ffffffffffffffffffffffffffffffffffffffff0219169055807f7cc135e0cebb02c3480ae5d74d377283180a2601f8f644edf7987b009316c63a60405160405180910390a281600681905550505050565b60106020528060005260406000206000915054906101000a900460ff1681565b601360003373ffffffffffffffffffffffffffffffffffffffff1673ffffffffffffffffffffffffffffffffffffffff16815260200190815260200160002060009054906101000a900460ff16610eac576040517f08c379a0000000000000000000000000000000000000000000000000000000008152600401610ea39061378d565b60405180910390fd5b600e548110610ef0576040517f08c379a0000000000000000000000000000000000000000000000000000000008152600401610ee7906137f9565b60405180910390fd5b60008273ffffffffffffffffffffffffffffffffffffffff1682604051610f169061384a565b60006040518083038185875af1925050503d8060008114610f53576040519150601f19603f3d011682016040523d82523d6000602084013e610f58565b606091505b5050905080610f9c576040517f08c379a0000000000000000000000000000000000000000000000000000000008152600401610f93906138ab565b60405180910390fd5b505050565b600c8054610fae9061367d565b80601f0160208091040260200160405190810160405280929190818152602001828054610fda9061367d565b80156110275780601f10610ffc57610100808354040283529160200191611027565b820191906000526020600020905b81548152906001019060200180831161100a57829003601f168201915b505050505081565b6015818154811061103f57600080fd5b906000526020600020016000915054906101000a900473ffffffffffffffffffffffffffffffffffffffff1681565b60008061108560085430634357855e60e01b6122f2565b90506111066040518060400160405280600481526020017f70617468000000000000000000000000000000000000000000000000000000008152506040518060400160405280600781526020017f63707554656d7000000000000000000000000000000000000000000000000000815250836123239092919063ffffffff16565b6000670de0b6b3a764000090506111926040518060400160405280600781526020017f70695f74656d70000000000000000000000000000000000000000000000000008152506040518060400160405280600781526020017f63707554656d7000000000000000000000000000000000000000000000000000815250846123239092919063ffffffff16565b6111dc6040518060400160405280600581526020017f74696d657300000000000000000000000000000000000000000000000000000081525082846123569092919063ffffffff16565b61120b600760009054906101000a900473ffffffffffffffffffffffffffffffffffffffff1683600954612389565b9250505090565b601360003373ffffffffffffffffffffffffffffffffffffffff1673ffffffffffffffffffffffffffffffffffffffff16815260200190815260200160002060009054906101000a900460ff1661129e576040517f08c379a00000000000000000000000000000000000000000000000000000000081526004016112959061378d565b60405180910390fd5b670de0b6b3a7640000816112b291906138fa565b60098190555050565b601360003373ffffffffffffffffffffffffffffffffffffffff1673ffffffffffffffffffffffffffffffffffffffff16815260200190815260200160002060009054906101000a900460ff16611347576040517f08c379a000000000000000000000000000000000000000000000000000000000815260040161133e9061378d565b60405180910390fd5b6000601360008373ffffffffffffffffffffffffffffffffffffffff1673ffffffffffffffffffffffffffffffffffffffff16815260200190815260200160002060006101000a81548160ff02191690831515021790556113dd576040517f08c379a00000000000000000000000000000000000000000000000000000000081526004016113d4906139a0565b60405180910390fd5b6018819080600181540180825580915050600190039060005260206000200160009091909190916101000a81548173ffffffffffffffffffffffffffffffffffffffff021916908373ffffffffffffffffffffffffffffffffffffffff1602179055508073ffffffffffffffffffffffffffffffffffffffff167f090ba92f5fbae40c1d309ad0e93793dc8615e023fc5d5924dcfc725b8caa06b5336040516114869190612e9d565b60405180910390a250565b60065481565b601681815481106114a757600080fd5b9060005260206000200160009150905080546114c29061367d565b80601f01602080910402602001604051908101604052809291908181526020018280546114ee9061367d565b801561153b5780601f106115105761010080835404028352916020019161153b565b820191906000526020600020905b81548152906001019060200180831161151e57829003601f168201915b505050505081565b601360003373ffffffffffffffffffffffffffffffffffffffff1673ffffffffffffffffffffffffffffffffffffffff16815260200190815260200160002060009054906101000a900460ff166115cf576040517f08c379a00000000000000000000000000000000000000000000000000000000081526004016115c69061378d565b60405180910390fd5b60011515600f60008373ffffffffffffffffffffffffffffffffffffffff1673ffffffffffffffffffffffffffffffffffffffff16815260200190815260200160002060009054906101000a900460ff16151514611662576040517f08c379a000000000000000000000000000000000000000000000000000000000815260040161165990613a0c565b60405180910390fd5b80600760006101000a81548173ffffffffffffffffffffffffffffffffffffffff021916908373ffffffffffffffffffffffffffffffffffffffff16021790555050565b600760009054906101000a900473ffffffffffffffffffffffffffffffffffffffff1681565b6000600760009054906101000a900473ffffffffffffffffffffffffffffffffffffffff16905090565b600a60009054906101000a900473ffffffffffffffffffffffffffffffffffffffff1681565b6012818051602081018201805184825260208301602085012081835280955050505050506000915054906101000a900460ff1681565b601360003373ffffffffffffffffffffffffffffffffffffffff1673ffffffffffffffffffffffffffffffffffffffff16815260200190815260200160002060009054906101000a900460ff166117de576040517f08c379a00000000000000000000000000000000000000000000000000000000081526004016117d59061378d565b60405180910390fd5b600015156010600083815260200190815260200160002060009054906101000a900460ff16151514611845576040517f08c379a000000000000000000000000000000000000000000000000000000000815260040161183c90613a78565b60405180910390fd5b60016010600083815260200190815260200160002060006101000a81548160ff021916908315150217905550806008819055506014819080600181540180825580915050600190039060005260206000200160009091909190915055807f59bd9db4e80912198e2c6e07070b8b3996054c72eb0444fc5aafc501131eb9bb336040516118d19190612e9d565b60405180910390a250565b6060601880548060200260200160405190810160405280929190818152602001828054801561196057602002820191906000526020600020905b8160009054906101000a900473ffffffffffffffffffffffffffffffffffffffff1673ffffffffffffffffffffffffffffffffffffffff1681526020019060010190808311611916575b5050505050905090565b6000808273ffffffffffffffffffffffffffffffffffffffff16633bc5de306040518163ffffffff1660e01b8152600401602060405180830381865afa1580156119b8573d6000803e3d6000fd5b505050506040513d601f19601f820116820180604052508101906119dc9190613aad565b905080915050919050565b60085481565b601360003373ffffffffffffffffffffffffffffffffffffffff1673ffffffffffffffffffffffffffffffffffffffff16815260200190815260200160002060009054906101000a900460ff16611a79576040517f08c379a0000000000000000000000000000000000000000000000000000000008152600401611a709061378d565b60405180910390fd5b6000601282604051611a8b9190613b16565b908152602001604051809103902060006101000a81548160ff0219169083151502179055611aee576040517f08c379a0000000000000000000000000000000000000000000000000000000008152600401611ae590613b79565b60405180910390fd5b6001601282604051611b009190613b16565b908152602001604051809103902060006101000a81548160ff02191690831515021790555080600d9080519060200190611b3b929190612cbb565b50601781908060018154018082558091505060019003906000526020600020016000909190919091509080519060200190611b77929190612cbb565b5080604051611b869190613b16565b60405180910390207f7f0c0553b23d8254816168ecabaf56052271883bbad6f3964262f242c9e30b4b33604051611bbd9190612e9d565b60405180910390a250565b6000600954905090565b34600e6000828254611be49190613b99565b92505081905550565b600e5481565b60606016805480602002602001604051908101604052809291908181526020016000905b82821015611cc3578382906000526020600020018054611c369061367d565b80601f0160208091040260200160405190810160405280929190818152602001828054611c629061367d565b8015611caf5780601f10611c8457610100808354040283529160200191611caf565b820191906000526020600020905b815481529060010190602001808311611c9257829003601f168201915b505050505081526020019060010190611c17565b50505050905090565b6000600854905090565b60095481565b601360003373ffffffffffffffffffffffffffffffffffffffff1673ffffffffffffffffffffffffffffffffffffffff16815260200190815260200160002060009054906101000a900460ff16611d68576040517f08c379a0000000000000000000000000000000000000000000000000000000008152600401611d5f9061378d565b60405180910390fd5b60001515600f60008373ffffffffffffffffffffffffffffffffffffffff1673ffffffffffffffffffffffffffffffffffffffff16815260200190815260200160002060009054906101000a900460ff16151514611dfb576040517f08c379a0000000000000000000000000000000000000000000000000000000008152600401611df290613c3b565b60405180910390fd5b6001600f60008373ffffffffffffffffffffffffffffffffffffffff1673ffffffffffffffffffffffffffffffffffffffff16815260200190815260200160002060006101000a81548160ff02191690831515021790555080600760006101000a81548173ffffffffffffffffffffffffffffffffffffffff021916908373ffffffffffffffffffffffffffffffffffffffff1602179055506015819080600181540180825580915050600190039060005260206000200160009091909190916101000a81548173ffffffffffffffffffffffffffffffffffffffff021916908373ffffffffffffffffffffffffffffffffffffffff1602179055508073ffffffffffffffffffffffffffffffffffffffff167fff981d19ed340961adeafcb27727e8c2b5bdaefe87f3683db00cadcd1c3e52d733604051611f3d9190612e9d565b60405180910390a250565b601360003373ffffffffffffffffffffffffffffffffffffffff1673ffffffffffffffffffffffffffffffffffffffff16815260200190815260200160002060009054906101000a900460ff16611fd4576040517f08c379a0000000000000000000000000000000000000000000000000000000008152600401611fcb9061378d565b60405180910390fd5b6000601182604051611fe69190613b16565b908152602001604051809103902060006101000a81548160ff0219169083151502179055612049576040517f08c379a000000000000000000000000000000000000000000000000000000000815260040161204090613ca7565b60405180910390fd5b600160118260405161205b9190613b16565b908152602001604051809103902060006101000a81548160ff02191690831515021790555080600c9080519060200190612096929190612cbb565b506016819080600181540180825580915050600190039060005260206000200160009091909190915090805190602001906120d2929190612cbb565b50806040516120e19190613b16565b60405180910390207f2516508dd88ecc6d3032b7c5fdf30eda8b45a8907e27fd70bdb576255ca73d88336040516121189190612e9d565b60405180910390a250565b601360003373ffffffffffffffffffffffffffffffffffffffff1673ffffffffffffffffffffffffffffffffffffffff16815260200190815260200160002060009054906101000a900460ff166121af576040517f08c379a00000000000000000000000000000000000000000000000000000000081526004016121a69061378d565b60405180910390fd5b600115156010600083815260200190815260200160002060009054906101000a900460ff16151514612216576040517f08c379a000000000000000000000000000000000000000000000000000000000815260040161220d90613d13565b60405180910390fd5b8060088190555050565b600b60009054906101000a900473ffffffffffffffffffffffffffffffffffffffff1681565b6017818154811061225657600080fd5b9060005260206000200160009150905080546122719061367d565b80601f016020809104026020016040519081016040528092919081815260200182805461229d9061367d565b80156122ea5780601f106122bf576101008083540402835291602001916122ea565b820191906000526020600020905b8154815290600101906020018083116122cd57829003601f168201915b505050505081565b6122fa612d41565b612302612d41565b61231985858584612455909392919063ffffffff16565b9150509392505050565b61233a82846080015161250590919063ffffffff16565b61235181846080015161250590919063ffffffff16565b505050565b61236d82846080015161250590919063ffffffff16565b61238481846080015161252a90919063ffffffff16565b505050565b600080600454905060018161239e9190613b99565b6004819055506000634042994660e01b60008087600001513089604001518760018c60800151600001516040516024016123df989796959493929190613dc3565b604051602081830303815290604052907bffffffffffffffffffffffffffffffffffffffffffffffffffffffff19166020820180517bffffffffffffffffffffffffffffffffffffffffffffffffffffffff8381831617835250505050905061244a868386846125d7565b925050509392505050565b61245d612d41565b61246d856080015161010061276c565b508385600001818152505082856020019073ffffffffffffffffffffffffffffffffffffffff16908173ffffffffffffffffffffffffffffffffffffffff16815250508185604001907bffffffffffffffffffffffffffffffffffffffffffffffffffffffff191690817bffffffffffffffffffffffffffffffffffffffffffffffffffffffff191681525050849050949350505050565b61251282600383516127d6565b612525818361295b90919063ffffffff16565b505050565b7fffffffffffffffffffffffffffffffffffffffffffffffff00000000000000008112156125615761255c828261297d565b6125d3565b67ffffffffffffffff8113156125805761257b82826129f4565b6125d2565b6000811261259957612594826000836127d6565b6125d1565b6125d0826001837fffffffffffffffffffffffffffffffffffffffffffffffffffffffffffffffff6125cb9190613e52565b6127d6565b5b5b5b5050565b600030846040516020016125ec929190613f9f565b604051602081830303815290604052805190602001209050846005600083815260200190815260200160002060006101000a81548173ffffffffffffffffffffffffffffffffffffffff021916908373ffffffffffffffffffffffffffffffffffffffff160217905550807fb5e6e01e79f91267dc17b4e6314d5d4d03593d2ceee0fbb452b750bd70ea5af960405160405180910390a2600260009054906101000a900473ffffffffffffffffffffffffffffffffffffffff1673ffffffffffffffffffffffffffffffffffffffff16634000aea08685856040518463ffffffff1660e01b81526004016126e293929190613fcb565b6020604051808303816000875af1158015612701573d6000803e3d6000fd5b505050506040513d601f19601f820116820180604052508101906127259190614035565b612764576040517f08c379a000000000000000000000000000000000000000000000000000000000815260040161275b906140d4565b60405180910390fd5b949350505050565b612774612dae565b60006020836127839190614123565b146127af576020826127959190614123565b60206127a19190614154565b826127ac9190613b99565b91505b81836020018181525050604051808452600081528281016020016040525082905092915050565b60178167ffffffffffffffff161161280d576128078160058460ff16901b60ff161784612a4090919063ffffffff16565b50612956565b60ff8167ffffffffffffffff16116128635761283c601860058460ff16901b1784612a4090919063ffffffff16565b5061285d8167ffffffffffffffff16600185612a609092919063ffffffff16565b50612955565b61ffff8167ffffffffffffffff16116128ba57612893601960058460ff16901b1784612a4090919063ffffffff16565b506128b48167ffffffffffffffff16600285612a609092919063ffffffff16565b50612954565b63ffffffff8167ffffffffffffffff1611612913576128ec601a60058460ff16901b1784612a4090919063ffffffff16565b5061290d8167ffffffffffffffff16600485612a609092919063ffffffff16565b50612953565b612930601b60058460ff16901b1784612a4090919063ffffffff16565b506129518167ffffffffffffffff16600885612a609092919063ffffffff16565b505b5b5b5b505050565b612963612dae565b61297583846000015151848551612a82565b905092915050565b61299b60036005600660ff16901b1783612a4090919063ffffffff16565b506129f082827fffffffffffffffffffffffffffffffffffffffffffffffffffffffffffffffff6129cc9190613e52565b6040516020016129dc9190613365565b604051602081830303815290604052612b71565b5050565b612a1260026005600660ff16901b1783612a4090919063ffffffff16565b50612a3c8282604051602001612a289190613365565b604051602081830303815290604052612b71565b5050565b612a48612dae565b612a588384600001515184612b96565b905092915050565b612a68612dae565b612a79848560000151518585612bed565b90509392505050565b612a8a612dae565b8251821115612a9857600080fd5b84602001518285612aa99190613b99565b1115612ade57612add856002612ace88602001518887612ac99190613b99565b612c7b565b612ad891906138fa565b612c97565b5b600080865180518760208301019350808887011115612afd5787860182525b60208701925050505b60208410612b445780518252602082612b1f9190613b99565b9150602081612b2e9190613b99565b9050602084612b3d9190614154565b9350612b06565b60006001856020036101000a03905080198251168184511681811785525050508692505050949350505050565b612b7e82600283516127d6565b612b91818361295b90919063ffffffff16565b505050565b612b9e612dae565b83602001518310612bc457612bc38460028660200151612bbe91906138fa565b612c97565b5b8351805160208583010184815381861415612be0576001820183525b5050508390509392505050565b612bf5612dae565b84602001518483612c069190613b99565b1115612c2e57612c2d8560028685612c1e9190613b99565b612c2891906138fa565b612c97565b5b6000600183610100612c4091906142bb565b612c4a9190614154565b90508551838682010185831982511617815281518588011115612c6d5784870182525b505085915050949350505050565b600081831115612c8d57829050612c91565b8190505b92915050565b600082600001519050612caa838361276c565b50612cb5838261295b565b50505050565b828054612cc79061367d565b90600052602060002090601f016020900481019282612ce95760008555612d30565b82601f10612d0257805160ff1916838001178555612d30565b82800160010185558215612d30579182015b82811115612d2f578251825591602001919060010190612d14565b5b509050612d3d9190612dc8565b5090565b6040518060a0016040528060008019168152602001600073ffffffffffffffffffffffffffffffffffffffff16815260200160007bffffffffffffffffffffffffffffffffffffffffffffffffffffffff1916815260200160008152602001612da8612dae565b81525090565b604051806040016040528060608152602001600081525090565b5b80821115612de1576000816000905550600101612dc9565b5090565b6000604051905090565b600080fd5b600080fd5b6000819050919050565b612e0c81612df9565b8114612e1757600080fd5b50565b600081359050612e2981612e03565b92915050565b600060208284031215612e4557612e44612def565b5b6000612e5384828501612e1a565b91505092915050565b600073ffffffffffffffffffffffffffffffffffffffff82169050919050565b6000612e8782612e5c565b9050919050565b612e9781612e7c565b82525050565b6000602082019050612eb26000830184612e8e565b92915050565b600081519050919050565b600082825260208201905092915050565b6000819050602082019050919050565b600081519050919050565b600082825260208201905092915050565b60005b83811015612f1e578082015181840152602081019050612f03565b83811115612f2d576000848401525b50505050565b6000601f19601f8301169050919050565b6000612f4f82612ee4565b612f598185612eef565b9350612f69818560208601612f00565b612f7281612f33565b840191505092915050565b6000612f898383612f44565b905092915050565b6000602082019050919050565b6000612fa982612eb8565b612fb38185612ec3565b935083602082028501612fc585612ed4565b8060005b858110156130015784840389528151612fe28582612f7d565b9450612fed83612f91565b925060208a01995050600181019050612fc9565b50829750879550505050505092915050565b6000602082019050818103600083015261302d8184612f9e565b905092915050565b6000819050919050565b61304881613035565b82525050565b6000602082019050613063600083018461303f565b92915050565b600080fd5b600080fd5b7f4e487b7100000000000000000000000000000000000000000000000000000000600052604160045260246000fd5b6130ab82612f33565b810181811067ffffffffffffffff821117156130ca576130c9613073565b5b80604052505050565b60006130dd612de5565b90506130e982826130a2565b919050565b600067ffffffffffffffff82111561310957613108613073565b5b61311282612f33565b9050602081019050919050565b82818337600083830152505050565b600061314161313c846130ee565b6130d3565b90508281526020810184848401111561315d5761315c61306e565b5b61316884828561311f565b509392505050565b600082601f83011261318557613184613069565b5b813561319584826020860161312e565b91505092915050565b6000602082840312156131b4576131b3612def565b5b600082013567ffffffffffffffff8111156131d2576131d1612df4565b5b6131de84828501613170565b91505092915050565b60008115159050919050565b6131fc816131e7565b82525050565b600060208201905061321760008301846131f3565b92915050565b61322681612e7c565b811461323157600080fd5b50565b6000813590506132438161321d565b92915050565b60006020828403121561325f5761325e612def565b5b600061326d84828501613234565b91505092915050565b600081519050919050565b600082825260208201905092915050565b6000819050602082019050919050565b6132ab81613035565b82525050565b60006132bd83836132a2565b60208301905092915050565b6000602082019050919050565b60006132e182613276565b6132eb8185613281565b93506132f683613292565b8060005b8381101561332757815161330e88826132b1565b9750613319836132c9565b9250506001810190506132fa565b5085935050505092915050565b6000602082019050818103600083015261334e81846132d6565b905092915050565b61335f81612df9565b82525050565b600060208201905061337a6000830184613356565b92915050565b600082825260208201905092915050565b600061339c82612ee4565b6133a68185613380565b93506133b6818560208601612f00565b6133bf81612f33565b840191505092915050565b600060208201905081810360008301526133e48184613391565b905092915050565b600081519050919050565b600082825260208201905092915050565b6000819050602082019050919050565b61342181612e7c565b82525050565b60006134338383613418565b60208301905092915050565b6000602082019050919050565b6000613457826133ec565b61346181856133f7565b935061346c83613408565b8060005b8381101561349d5781516134848882613427565b975061348f8361343f565b925050600181019050613470565b5085935050505092915050565b600060208201905081810360008301526134c4818461344c565b905092915050565b6134d581613035565b81146134e057600080fd5b50565b6000813590506134f2816134cc565b92915050565b6000806040838503121561350f5761350e612def565b5b600061351d858286016134e3565b925050602061352e85828601612e1a565b9150509250929050565b60006020828403121561354e5761354d612def565b5b600061355c848285016134e3565b91505092915050565b600061357082612e5c565b9050919050565b61358081613565565b811461358b57600080fd5b50565b60008135905061359d81613577565b92915050565b600080604083850312156135ba576135b9612def565b5b60006135c88582860161358e565b92505060206135d985828601612e1a565b9150509250929050565b60006135ee82612e7c565b9050919050565b6135fe816135e3565b811461360957600080fd5b50565b60008135905061361b816135f5565b92915050565b60006020828403121561363757613636612def565b5b60006136458482850161360c565b91505092915050565b7f4e487b7100000000000000000000000000000000000000000000000000000000600052602260045260246000fd5b6000600282049050600182168061369557607f821691505b602082108114156136a9576136a861364e565b5b50919050565b7f536f75726365206d75737420626520746865206f7261636c65206f662074686560008201527f2072657175657374000000000000000000000000000000000000000000000000602082015250565b600061370b602883613380565b9150613716826136af565b604082019050919050565b6000602082019050818103600083015261373a816136fe565b9050919050565b7f756e617574686f72697a65640000000000000000000000000000000000000000600082015250565b6000613777600c83613380565b915061378282613741565b602082019050919050565b600060208201905081810360008301526137a68161376a565b9050919050565b7f616d6f756e742065786365656473000000000000000000000000000000000000600082015250565b60006137e3600e83613380565b91506137ee826137ad565b602082019050919050565b60006020820190508181036000830152613812816137d6565b9050919050565b600081905092915050565b50565b6000613834600083613819565b915061383f82613824565b600082019050919050565b600061385582613827565b9150819050919050565b7f7472616e73616374696f6e206661696c65640000000000000000000000000000600082015250565b6000613895601283613380565b91506138a08261385f565b602082019050919050565b600060208201905081810360008301526138c481613888565b9050919050565b7f4e487b7100000000000000000000000000000000000000000000000000000000600052601160045260246000fd5b600061390582612df9565b915061391083612df9565b9250817fffffffffffffffffffffffffffffffffffffffffffffffffffffffffffffffff0483118215151615613949576139486138cb565b5b828202905092915050565b7f6f776e657220616c726561647920616464656400000000000000000000000000600082015250565b600061398a601383613380565b915061399582613954565b602082019050919050565b600060208201905081810360008301526139b98161397d565b9050919050565b7f596f752068617665206e6f742061646465642074686973206f7261636c650000600082015250565b60006139f6601e83613380565b9150613a01826139c0565b602082019050919050565b60006020820190508181036000830152613a25816139e9565b9050919050565b7f4a6f6220616c7265616479206164646564000000000000000000000000000000600082015250565b6000613a62601183613380565b9150613a6d82613a2c565b602082019050919050565b60006020820190508181036000830152613a9181613a55565b9050919050565b600081519050613aa781612e03565b92915050565b600060208284031215613ac357613ac2612def565b5b6000613ad184828501613a98565b91505092915050565b600081905092915050565b6000613af082612ee4565b613afa8185613ada565b9350613b0a818560208601612f00565b80840191505092915050565b6000613b228284613ae5565b915081905092915050565b7f7061746820616c72656164792065786973747300000000000000000000000000600082015250565b6000613b63601383613380565b9150613b6e82613b2d565b602082019050919050565b60006020820190508181036000830152613b9281613b56565b9050919050565b6000613ba482612df9565b9150613baf83612df9565b9250827fffffffffffffffffffffffffffffffffffffffffffffffffffffffffffffffff03821115613be457613be36138cb565b5b828201905092915050565b7f4f7261636c6520616c7265616479206164646564000000000000000000000000600082015250565b6000613c25601483613380565b9150613c3082613bef565b602082019050919050565b60006020820190508181036000830152613c5481613c18565b9050919050565b7f75726c20616c7265616479206164646564000000000000000000000000000000600082015250565b6000613c91601183613380565b9150613c9c82613c5b565b602082019050919050565b60006020820190508181036000830152613cc081613c84565b9050919050565b7f596f752068617665206e6f742061646465642074686973206a6f620000000000600082015250565b6000613cfd601b83613380565b9150613d0882613cc7565b602082019050919050565b60006020820190508181036000830152613d2c81613cf0565b9050919050565b60007fffffffff0000000000000000000000000000000000000000000000000000000082169050919050565b613d6881613d33565b82525050565b600081519050919050565b600082825260208201905092915050565b6000613d9582613d6e565b613d9f8185613d79565b9350613daf818560208601612f00565b613db881612f33565b840191505092915050565b600061010082019050613dd9600083018b612e8e565b613de6602083018a613356565b613df3604083018961303f565b613e006060830188612e8e565b613e0d6080830187613d5f565b613e1a60a0830186613356565b613e2760c0830185613356565b81810360e0830152613e398184613d8a565b90509998505050505050505050565b6000819050919050565b6000613e5d82613e48565b9150613e6883613e48565b9250827f800000000000000000000000000000000000000000000000000000000000000001821260008412151615613ea357613ea26138cb565b5b827f7fffffffffffffffffffffffffffffffffffffffffffffffffffffffffffffff018213600084121615613edb57613eda6138cb565b5b828203905092915050565b6000819050919050565b6000613f0b613f06613f0184612e5c565b613ee6565b612e5c565b9050919050565b6000613f1d82613ef0565b9050919050565b6000613f2f82613f12565b9050919050565b60008160601b9050919050565b6000613f4e82613f36565b9050919050565b6000613f6082613f43565b9050919050565b613f78613f7382613f24565b613f55565b82525050565b6000819050919050565b613f99613f9482612df9565b613f7e565b82525050565b6000613fab8285613f67565b601482019150613fbb8284613f88565b6020820191508190509392505050565b6000606082019050613fe06000830186612e8e565b613fed6020830185613356565b8181036040830152613fff8184613d8a565b9050949350505050565b614012816131e7565b811461401d57600080fd5b50565b60008151905061402f81614009565b92915050565b60006020828403121561404b5761404a612def565b5b600061405984828501614020565b91505092915050565b7f756e61626c6520746f207472616e73666572416e6443616c6c20746f206f726160008201527f636c650000000000000000000000000000000000000000000000000000000000602082015250565b60006140be602383613380565b91506140c982614062565b604082019050919050565b600060208201905081810360008301526140ed816140b1565b9050919050565b7f4e487b7100000000000000000000000000000000000000000000000000000000600052601260045260246000fd5b600061412e82612df9565b915061413983612df9565b925082614149576141486140f4565b5b828206905092915050565b600061415f82612df9565b915061416a83612df9565b92508282101561417d5761417c6138cb565b5b828203905092915050565b60008160011c9050919050565b6000808291508390505b60018511156141df578086048111156141bb576141ba6138cb565b5b60018516156141ca5780820291505b80810290506141d885614188565b945061419f565b94509492505050565b6000826141f857600190506142b4565b8161420657600090506142b4565b816001811461421c576002811461422657614255565b60019150506142b4565b60ff841115614238576142376138cb565b5b8360020a91508482111561424f5761424e6138cb565b5b506142b4565b5060208310610133831016604e8410600b841016171561428a5782820a905083811115614285576142846138cb565b5b6142b4565b6142978484846001614195565b925090508184048111156142ae576142ad6138cb565b5b81810290505b9392505050565b60006142c682612df9565b91506142d183612df9565b92506142fe7fffffffffffffffffffffffffffffffffffffffffffffffffffffffffffffffff84846141e8565b90509291505056fea2646970667358221220c164a1c1a16a10755d2748884b90079d102f3bd76784792d363815309ac95a8864736f6c634300080a0033",
  "linkReferences": {},
  "deployedLinkReferences": {}
}