{
  "_format": "hh-sol-artifact-1",
  "contractName": "CallConsume",
  "sourceName": "contracts/CallConsume.sol",
  "abi": [
    {
      "anonymous": false,
      "inputs": [
        {
          "indexed": true,
          "internalType": "bytes32",
          "name": "id",
          "type": "bytes32"
        }
      ],
      "name": "ChainlinkCancelled",
      "type": "event"
    },
    {
      "anonymous": false,
      "inputs": [
        {
          "indexed": true,
          "internalType": "bytes32",
          "name": "id",
          "type": "bytes32"
        }
      ],
      "name": "ChainlinkFulfilled",
      "type": "event"
    },
    {
      "anonymous": false,
      "inputs": [
        {
          "indexed": true,
          "internalType": "bytes32",
          "name": "id",
          "type": "bytes32"
        }
      ],
      "name": "ChainlinkRequested",
      "type": "event"
    },
    {
      "anonymous": false,
      "inputs": [
        {
          "indexed": false,
          "internalType": "address",
          "name": "_owner",
          "type": "address"
        },
        {
          "indexed": true,
          "internalType": "bytes32",
          "name": "_Job",
          "type": "bytes32"
        }
      ],
      "name": "JobAdd",
      "type": "event"
    },
    {
      "anonymous": false,
      "inputs": [
        {
          "indexed": false,
          "internalType": "address",
          "name": "_owner",
          "type": "address"
        },
        {
          "indexed": true,
          "internalType": "address",
          "name": "_oracleAddress",
          "type": "address"
        }
      ],
      "name": "OracleAdd",
      "type": "event"
    },
    {
      "anonymous": false,
      "inputs": [
        {
          "indexed": false,
          "internalType": "address",
          "name": "_owner",
          "type": "address"
        },
        {
          "indexed": true,
          "internalType": "address",
          "name": "_newOwner",
          "type": "address"
        }
      ],
      "name": "OwnerAdd",
      "type": "event"
    },
    {
      "anonymous": false,
      "inputs": [
        {
          "indexed": false,
          "internalType": "address",
          "name": "_owner",
          "type": "address"
        },
        {
          "indexed": true,
          "internalType": "string",
          "name": "_path",
          "type": "string"
        }
      ],
      "name": "PathAdd",
      "type": "event"
    },
    {
      "anonymous": false,
      "inputs": [
        {
          "indexed": false,
          "internalType": "address",
          "name": "_owner",
          "type": "address"
        },
        {
          "indexed": true,
          "internalType": "string",
          "name": "_url",
          "type": "string"
        }
      ],
      "name": "UrlAdd",
      "type": "event"
    },
    {
      "inputs": [
        {
          "internalType": "bytes32",
          "name": "_jobId",
          "type": "bytes32"
        }
      ],
      "name": "addJob",
      "outputs": [],
      "stateMutability": "nonpayable",
      "type": "function"
    },
    {
      "inputs": [
        {
          "internalType": "address",
          "name": "_oracleAddr",
          "type": "address"
        }
      ],
      "name": "addOracle",
      "outputs": [],
      "stateMutability": "nonpayable",
      "type": "function"
    },
    {
      "inputs": [
        {
          "internalType": "address",
          "name": "_newOwner",
          "type": "address"
        }
      ],
      "name": "addOwner",
      "outputs": [],
      "stateMutability": "nonpayable",
      "type": "function"
    },
    {
      "inputs": [
        {
          "internalType": "string",
          "name": "_path",
          "type": "string"
        }
      ],
      "name": "addPath",
      "outputs": [],
      "stateMutability": "nonpayable",
      "type": "function"
    },
    {
      "inputs": [
        {
          "internalType": "string",
          "name": "_url",
          "type": "string"
        }
      ],
      "name": "addUrl",
      "outputs": [],
      "stateMutability": "nonpayable",
      "type": "function"
    },
    {
      "inputs": [
        {
          "internalType": "contract CallConsume",
          "name": "_addr",
          "type": "address"
        }
      ],
      "name": "callPi",
      "outputs": [
        {
          "internalType": "uint256",
          "name": "",
          "type": "uint256"
        }
      ],
      "stateMutability": "view",
      "type": "function"
    },
    {
      "inputs": [],
      "name": "data",
      "outputs": [
        {
          "internalType": "uint256",
          "name": "",
          "type": "uint256"
        }
      ],
      "stateMutability": "view",
      "type": "function"
    },
    {
      "inputs": [],
      "name": "depositLink",
      "outputs": [],
      "stateMutability": "payable",
      "type": "function"
    },
    {
      "inputs": [],
      "name": "fee",
      "outputs": [
        {
          "internalType": "uint256",
          "name": "",
          "type": "uint256"
        }
      ],
      "stateMutability": "view",
      "type": "function"
    },
    {
      "inputs": [
        {
          "internalType": "bytes32",
          "name": "_requestId",
          "type": "bytes32"
        },
        {
          "internalType": "uint256",
          "name": "_data",
          "type": "uint256"
        }
      ],
      "name": "fulfill",
      "outputs": [],
      "stateMutability": "nonpayable",
      "type": "function"
    },
    {
      "inputs": [],
      "name": "getData",
      "outputs": [
        {
          "internalType": "uint256",
          "name": "",
          "type": "uint256"
        }
      ],
      "stateMutability": "view",
      "type": "function"
    },
    {
      "inputs": [],
      "name": "getFee",
      "outputs": [
        {
          "internalType": "uint256",
          "name": "",
          "type": "uint256"
        }
      ],
      "stateMutability": "view",
      "type": "function"
    },
    {
      "inputs": [],
      "name": "getJob",
      "outputs": [
        {
          "internalType": "bytes32",
          "name": "",
          "type": "bytes32"
        }
      ],
      "stateMutability": "view",
      "type": "function"
    },
    {
      "inputs": [],
      "name": "getOracle",
      "outputs": [
        {
          "internalType": "address",
          "name": "",
          "type": "address"
        }
      ],
      "stateMutability": "view",
      "type": "function"
    },
    {
      "inputs": [
        {
          "internalType": "address",
          "name": "",
          "type": "address"
        }
      ],
      "name": "isOwner",
      "outputs": [
        {
          "internalType": "bool",
          "name": "",
          "type": "bool"
        }
      ],
      "stateMutability": "view",
      "type": "function"
    },
    {
      "inputs": [
        {
          "internalType": "bytes32",
          "name": "",
          "type": "bytes32"
        }
      ],
      "name": "jobAuth",
      "outputs": [
        {
          "internalType": "bool",
          "name": "",
          "type": "bool"
        }
      ],
      "stateMutability": "view",
      "type": "function"
    },
    {
      "inputs": [],
      "name": "jobId",
      "outputs": [
        {
          "internalType": "bytes32",
          "name": "",
          "type": "bytes32"
        }
      ],
      "stateMutability": "view",
      "type": "function"
    },
    {
      "inputs": [
        {
          "internalType": "uint256",
          "name": "",
          "type": "uint256"
        }
      ],
      "name": "jobs",
      "outputs": [
        {
          "internalType": "bytes32",
          "name": "",
          "type": "bytes32"
        }
      ],
      "stateMutability": "view",
      "type": "function"
    },
    {
      "inputs": [],
      "name": "oracle",
      "outputs": [
        {
          "internalType": "address",
          "name": "",
          "type": "address"
        }
      ],
      "stateMutability": "view",
      "type": "function"
    },
    {
      "inputs": [
        {
          "internalType": "address",
          "name": "",
          "type": "address"
        }
      ],
      "name": "oracleAuth",
      "outputs": [
        {
          "internalType": "bool",
          "name": "",
          "type": "bool"
        }
      ],
      "stateMutability": "view",
      "type": "function"
    },
    {
      "inputs": [
        {
          "internalType": "uint256",
          "name": "",
          "type": "uint256"
        }
      ],
      "name": "oracles",
      "outputs": [
        {
          "internalType": "address",
          "name": "",
          "type": "address"
        }
      ],
      "stateMutability": "view",
      "type": "function"
    },
    {
      "inputs": [],
      "name": "owner",
      "outputs": [
        {
          "internalType": "address",
          "name": "",
          "type": "address"
        }
      ],
      "stateMutability": "view",
      "type": "function"
    },
    {
      "inputs": [
        {
          "internalType": "uint256",
          "name": "",
          "type": "uint256"
        }
      ],
      "name": "owners",
      "outputs": [
        {
          "internalType": "address",
          "name": "",
          "type": "address"
        }
      ],
      "stateMutability": "view",
      "type": "function"
    },
    {
      "inputs": [],
      "name": "path",
      "outputs": [
        {
          "internalType": "string",
          "name": "",
          "type": "string"
        }
      ],
      "stateMutability": "view",
      "type": "function"
    },
    {
      "inputs": [
        {
          "internalType": "string",
          "name": "",
          "type": "string"
        }
      ],
      "name": "pathExists",
      "outputs": [
        {
          "internalType": "bool",
          "name": "",
          "type": "bool"
        }
      ],
      "stateMutability": "view",
      "type": "function"
    },
    {
      "inputs": [
        {
          "internalType": "uint256",
          "name": "",
          "type": "uint256"
        }
      ],
      "name": "paths",
      "outputs": [
        {
          "internalType": "string",
          "name": "",
          "type": "string"
        }
      ],
      "stateMutability": "view",
      "type": "function"
    },
    {
      "inputs": [],
      "name": "requestData",
      "outputs": [
        {
          "internalType": "bytes32",
          "name": "requestId",
          "type": "bytes32"
        }
      ],
      "stateMutability": "nonpayable",
      "type": "function"
    },
    {
      "inputs": [
        {
          "internalType": "uint256",
          "name": "_rate",
          "type": "uint256"
        }
      ],
      "name": "setFee",
      "outputs": [],
      "stateMutability": "nonpayable",
      "type": "function"
    },
    {
      "inputs": [
        {
          "internalType": "bytes32",
          "name": "_jobId",
          "type": "bytes32"
        }
      ],
      "name": "setJob",
      "outputs": [],
      "stateMutability": "nonpayable",
      "type": "function"
    },
    {
      "inputs": [
        {
          "internalType": "address",
          "name": "_oracleAddr",
          "type": "address"
        }
      ],
      "name": "setOracle",
      "outputs": [],
      "stateMutability": "nonpayable",
      "type": "function"
    },
    {
      "inputs": [],
      "name": "token",
      "outputs": [
        {
          "internalType": "address",
          "name": "",
          "type": "address"
        }
      ],
      "stateMutability": "view",
      "type": "function"
    },
    {
      "inputs": [],
      "name": "totalValue",
      "outputs": [
        {
          "internalType": "uint256",
          "name": "",
          "type": "uint256"
        }
      ],
      "stateMutability": "view",
      "type": "function"
    },
    {
      "inputs": [],
      "name": "url",
      "outputs": [
        {
          "internalType": "string",
          "name": "",
          "type": "string"
        }
      ],
      "stateMutability": "view",
      "type": "function"
    },
    {
      "inputs": [
        {
          "internalType": "string",
          "name": "",
          "type": "string"
        }
      ],
      "name": "urlAuth",
      "outputs": [
        {
          "internalType": "bool",
          "name": "",
          "type": "bool"
        }
      ],
      "stateMutability": "view",
      "type": "function"
    },
    {
      "inputs": [
        {
          "internalType": "uint256",
          "name": "",
          "type": "uint256"
        }
      ],
      "name": "urls",
      "outputs": [
        {
          "internalType": "string",
          "name": "",
          "type": "string"
        }
      ],
      "stateMutability": "view",
      "type": "function"
    },
    {
      "inputs": [
        {
          "internalType": "address payable",
          "name": "_to",
          "type": "address"
        },
        {
          "internalType": "uint256",
          "name": "_amount",
          "type": "uint256"
        }
      ],
      "name": "withdrawLink",
      "outputs": [],
      "stateMutability": "nonpayable",
      "type": "function"
    }
  ],
  "bytecode": "0x608060405260016004553480156200001657600080fd5b506200003c7301be23585060835e02b77ef475b0cc51aa1e07096200010e60201b60201c565b33600a60006101000a81548173ffffffffffffffffffffffffffffffffffffffff021916908373ffffffffffffffffffffffffffffffffffffffff16021790555073ee04451ac26bb7fe0fa1596db06df7fbfef5bd91600760006101000a81548173ffffffffffffffffffffffffffffffffffffffff021916908373ffffffffffffffffffffffffffffffffffffffff1602179055507f313130373030366331323461346563633839313637366566376261653765343560088190555067016345785d8a000060098190555062000152565b80600260006101000a81548173ffffffffffffffffffffffffffffffffffffffff021916908373ffffffffffffffffffffffffffffffffffffffff16021790555050565b613cc480620001626000396000f3fe60806040526004361061020f5760003560e01c80637dc0d1d011610118578063d1bbf362116100a0578063df5dd1a51161006f578063df5dd1a5146107ce578063eb55787c146107f7578063f846daaf14610820578063fc0c546a14610849578063fc1bcd49146108745761020f565b8063d1bbf36214610743578063d4c3eea01461074d578063dd28e14d14610778578063ddca3f43146107a35761020f565b80639781b96c116100e75780639781b96c1461065e578063a9e10e8a14610687578063c2939d97146106c4578063cc71b30f146106ef578063ced72f87146107185761020f565b80637dc0d1d0146105a0578063833b1fce146105cb5780638da5cb5b146105f65780639079b46d146106215761020f565b806354b7faae1161019b57806369fe0e2d1161016a57806369fe0e2d146104bd5780637065cb48146104e657806373d4a13a1461050f578063796676be1461053a5780637adbf973146105775761020f565b806354b7faae146104015780635600f04f1461042a5780635b69a7d814610455578063606deecd146104925761020f565b80633bc5de30116101e25780633bc5de30146103085780633dc06356146103335780633ee6265f1461035e5780634357855e1461039b57806347414d5e146103c45761020f565b8063025e7c2714610214578063180aedf3146102515780632ae227611461028e5780632f54bf6e146102cb575b600080fd5b34801561022057600080fd5b5061023b60048036038101906102369190612aa5565b6108b1565b6040516102489190612b13565b60405180910390f35b34801561025d57600080fd5b5061027860048036038101906102739190612aa5565b6108f0565b6040516102859190612b47565b60405180910390f35b34801561029a57600080fd5b506102b560048036038101906102b09190612ca8565b610914565b6040516102c29190612d0c565b60405180910390f35b3480156102d757600080fd5b506102f260048036038101906102ed9190612d53565b61094a565b6040516102ff9190612d0c565b60405180910390f35b34801561031457600080fd5b5061031d61096a565b60405161032a9190612d8f565b60405180910390f35b34801561033f57600080fd5b50610348610974565b6040516103559190612e32565b60405180910390f35b34801561036a57600080fd5b5061038560048036038101906103809190612d53565b610a02565b6040516103929190612d0c565b60405180910390f35b3480156103a757600080fd5b506103c260048036038101906103bd9190612e80565b610a22565b005b3480156103d057600080fd5b506103eb60048036038101906103e69190612ec0565b610b33565b6040516103f89190612d0c565b60405180910390f35b34801561040d57600080fd5b5061042860048036038101906104239190612f2b565b610b53565b005b34801561043657600080fd5b5061043f610cd4565b60405161044c9190612e32565b60405180910390f35b34801561046157600080fd5b5061047c60048036038101906104779190612aa5565b610d62565b6040516104899190612b13565b60405180910390f35b34801561049e57600080fd5b506104a7610da1565b6040516104b49190612b47565b60405180910390f35b3480156104c957600080fd5b506104e460048036038101906104df9190612aa5565b610fef565b005b3480156104f257600080fd5b5061050d60048036038101906105089190612d53565b611098565b005b34801561051b57600080fd5b5061052461126e565b6040516105319190612d8f565b60405180910390f35b34801561054657600080fd5b50610561600480360381019061055c9190612aa5565b611274565b60405161056e9190612e32565b60405180910390f35b34801561058357600080fd5b5061059e60048036038101906105999190612d53565b611320565b005b3480156105ac57600080fd5b506105b5611483565b6040516105c29190612b13565b60405180910390f35b3480156105d757600080fd5b506105e06114a9565b6040516105ed9190612b13565b60405180910390f35b34801561060257600080fd5b5061060b6114d3565b6040516106189190612b13565b60405180910390f35b34801561062d57600080fd5b5061064860048036038101906106439190612ca8565b6114f9565b6040516106559190612d0c565b60405180910390f35b34801561066a57600080fd5b5061068560048036038101906106809190612ec0565b61152f565b005b34801561069357600080fd5b506106ae60048036038101906106a99190612fa9565b6116b9565b6040516106bb9190612d8f565b60405180910390f35b3480156106d057600080fd5b506106d9611736565b6040516106e69190612b47565b60405180910390f35b3480156106fb57600080fd5b5061071660048036038101906107119190612ca8565b61173c565b005b34801561072457600080fd5b5061072d611917565b60405161073a9190612d8f565b60405180910390f35b61074b611921565b005b34801561075957600080fd5b5061076261193c565b60405161076f9190612d8f565b60405180910390f35b34801561078457600080fd5b5061078d611942565b60405161079a9190612b47565b60405180910390f35b3480156107af57600080fd5b506107b861194c565b6040516107c59190612d8f565b60405180910390f35b3480156107da57600080fd5b506107f560048036038101906107f09190612d53565b611952565b005b34801561080357600080fd5b5061081e60048036038101906108199190612ca8565b611bbe565b005b34801561082c57600080fd5b5061084760048036038101906108429190612ec0565b611d99565b005b34801561085557600080fd5b5061085e611e96565b60405161086b9190612b13565b60405180910390f35b34801561088057600080fd5b5061089b60048036038101906108969190612aa5565b611ebc565b6040516108a89190612e32565b60405180910390f35b601881815481106108c157600080fd5b906000526020600020016000915054906101000a900473ffffffffffffffffffffffffffffffffffffffff1681565b6014818154811061090057600080fd5b906000526020600020016000915090505481565b6011818051602081018201805184825260208301602085012081835280955050505050506000915054906101000a900460ff1681565b60136020528060005260406000206000915054906101000a900460ff1681565b6000600654905090565b600d805461098190613005565b80601f01602080910402602001604051908101604052809291908181526020018280546109ad90613005565b80156109fa5780601f106109cf576101008083540402835291602001916109fa565b820191906000526020600020905b8154815290600101906020018083116109dd57829003601f168201915b505050505081565b600f6020528060005260406000206000915054906101000a900460ff1681565b816005600082815260200190815260200160002060009054906101000a900473ffffffffffffffffffffffffffffffffffffffff1673ffffffffffffffffffffffffffffffffffffffff163373ffffffffffffffffffffffffffffffffffffffff1614610ac4576040517f08c379a0000000000000000000000000000000000000000000000000000000008152600401610abb906130a9565b60405180910390fd5b6005600082815260200190815260200160002060006101000a81549073ffffffffffffffffffffffffffffffffffffffff0219169055807f7cc135e0cebb02c3480ae5d74d377283180a2601f8f644edf7987b009316c63a60405160405180910390a281600681905550505050565b60106020528060005260406000206000915054906101000a900460ff1681565b601360003373ffffffffffffffffffffffffffffffffffffffff1673ffffffffffffffffffffffffffffffffffffffff16815260200190815260200160002060009054906101000a900460ff16610bdf576040517f08c379a0000000000000000000000000000000000000000000000000000000008152600401610bd690613115565b60405180910390fd5b600e548110610c23576040517f08c379a0000000000000000000000000000000000000000000000000000000008152600401610c1a90613181565b60405180910390fd5b60008273ffffffffffffffffffffffffffffffffffffffff1682604051610c49906131d2565b60006040518083038185875af1925050503d8060008114610c86576040519150601f19603f3d011682016040523d82523d6000602084013e610c8b565b606091505b5050905080610ccf576040517f08c379a0000000000000000000000000000000000000000000000000000000008152600401610cc690613233565b60405180910390fd5b505050565b600c8054610ce190613005565b80601f0160208091040260200160405190810160405280929190818152602001828054610d0d90613005565b8015610d5a5780601f10610d2f57610100808354040283529160200191610d5a565b820191906000526020600020905b815481529060010190602001808311610d3d57829003601f168201915b505050505081565b60158181548110610d7257600080fd5b906000526020600020016000915054906101000a900473ffffffffffffffffffffffffffffffffffffffff1681565b600080610db860085430634357855e60e01b611f68565b9050610e8e6040518060400160405280600381526020017f6765740000000000000000000000000000000000000000000000000000000000815250600c8054610e0090613005565b80601f0160208091040260200160405190810160405280929190818152602001828054610e2c90613005565b8015610e795780601f10610e4e57610100808354040283529160200191610e79565b820191906000526020600020905b815481529060010190602001808311610e5c57829003601f168201915b505050505083611f999092919063ffffffff16565b610f626040518060400160405280600481526020017f7061746800000000000000000000000000000000000000000000000000000000815250600d8054610ed490613005565b80601f0160208091040260200160405190810160405280929190818152602001828054610f0090613005565b8015610f4d5780601f10610f2257610100808354040283529160200191610f4d565b820191906000526020600020905b815481529060010190602001808311610f3057829003601f168201915b505050505083611f999092919063ffffffff16565b6000670de0b6b3a76400009050610fb96040518060400160405280600581526020017f74696d65730000000000000000000000000000000000000000000000000000008152508284611fcc9092919063ffffffff16565b610fe8600760009054906101000a900473ffffffffffffffffffffffffffffffffffffffff1683600954611fff565b9250505090565b601360003373ffffffffffffffffffffffffffffffffffffffff1673ffffffffffffffffffffffffffffffffffffffff16815260200190815260200160002060009054906101000a900460ff1661107b576040517f08c379a000000000000000000000000000000000000000000000000000000000815260040161107290613115565b60405180910390fd5b670de0b6b3a76400008161108f9190613282565b60098190555050565b601360003373ffffffffffffffffffffffffffffffffffffffff1673ffffffffffffffffffffffffffffffffffffffff16815260200190815260200160002060009054906101000a900460ff16611124576040517f08c379a000000000000000000000000000000000000000000000000000000000815260040161111b90613115565b60405180910390fd5b6000601360008373ffffffffffffffffffffffffffffffffffffffff1673ffffffffffffffffffffffffffffffffffffffff16815260200190815260200160002060006101000a81548160ff02191690831515021790556111ba576040517f08c379a00000000000000000000000000000000000000000000000000000000081526004016111b190613328565b60405180910390fd5b6018819080600181540180825580915050600190039060005260206000200160009091909190916101000a81548173ffffffffffffffffffffffffffffffffffffffff021916908373ffffffffffffffffffffffffffffffffffffffff1602179055508073ffffffffffffffffffffffffffffffffffffffff167f090ba92f5fbae40c1d309ad0e93793dc8615e023fc5d5924dcfc725b8caa06b5336040516112639190612b13565b60405180910390a250565b60065481565b6016818154811061128457600080fd5b90600052602060002001600091509050805461129f90613005565b80601f01602080910402602001604051908101604052809291908181526020018280546112cb90613005565b80156113185780601f106112ed57610100808354040283529160200191611318565b820191906000526020600020905b8154815290600101906020018083116112fb57829003601f168201915b505050505081565b601360003373ffffffffffffffffffffffffffffffffffffffff1673ffffffffffffffffffffffffffffffffffffffff16815260200190815260200160002060009054906101000a900460ff166113ac576040517f08c379a00000000000000000000000000000000000000000000000000000000081526004016113a390613115565b60405180910390fd5b60011515600f60008373ffffffffffffffffffffffffffffffffffffffff1673ffffffffffffffffffffffffffffffffffffffff16815260200190815260200160002060009054906101000a900460ff1615151461143f576040517f08c379a000000000000000000000000000000000000000000000000000000000815260040161143690613394565b60405180910390fd5b80600760006101000a81548173ffffffffffffffffffffffffffffffffffffffff021916908373ffffffffffffffffffffffffffffffffffffffff16021790555050565b600760009054906101000a900473ffffffffffffffffffffffffffffffffffffffff1681565b6000600760009054906101000a900473ffffffffffffffffffffffffffffffffffffffff16905090565b600a60009054906101000a900473ffffffffffffffffffffffffffffffffffffffff1681565b6012818051602081018201805184825260208301602085012081835280955050505050506000915054906101000a900460ff1681565b601360003373ffffffffffffffffffffffffffffffffffffffff1673ffffffffffffffffffffffffffffffffffffffff16815260200190815260200160002060009054906101000a900460ff166115bb576040517f08c379a00000000000000000000000000000000000000000000000000000000081526004016115b290613115565b60405180910390fd5b600015156010600083815260200190815260200160002060009054906101000a900460ff16151514611622576040517f08c379a000000000000000000000000000000000000000000000000000000000815260040161161990613400565b60405180910390fd5b60016010600083815260200190815260200160002060006101000a81548160ff021916908315150217905550806008819055506014819080600181540180825580915050600190039060005260206000200160009091909190915055807f59bd9db4e80912198e2c6e07070b8b3996054c72eb0444fc5aafc501131eb9bb336040516116ae9190612b13565b60405180910390a250565b6000808273ffffffffffffffffffffffffffffffffffffffff16633bc5de306040518163ffffffff1660e01b8152600401602060405180830381865afa158015611707573d6000803e3d6000fd5b505050506040513d601f19601f8201168201806040525081019061172b9190613435565b905080915050919050565b60085481565b601360003373ffffffffffffffffffffffffffffffffffffffff1673ffffffffffffffffffffffffffffffffffffffff16815260200190815260200160002060009054906101000a900460ff166117c8576040517f08c379a00000000000000000000000000000000000000000000000000000000081526004016117bf90613115565b60405180910390fd5b60006012826040516117da919061349e565b908152602001604051809103902060006101000a81548160ff021916908315150217905561183d576040517f08c379a000000000000000000000000000000000000000000000000000000000815260040161183490613501565b60405180910390fd5b600160128260405161184f919061349e565b908152602001604051809103902060006101000a81548160ff02191690831515021790555080600d908051906020019061188a929190612931565b506017819080600181540180825580915050600190039060005260206000200160009091909190915090805190602001906118c6929190612931565b50806040516118d5919061349e565b60405180910390207f7f0c0553b23d8254816168ecabaf56052271883bbad6f3964262f242c9e30b4b3360405161190c9190612b13565b60405180910390a250565b6000600954905090565b34600e60008282546119339190613521565b92505081905550565b600e5481565b6000600854905090565b60095481565b601360003373ffffffffffffffffffffffffffffffffffffffff1673ffffffffffffffffffffffffffffffffffffffff16815260200190815260200160002060009054906101000a900460ff166119de576040517f08c379a00000000000000000000000000000000000000000000000000000000081526004016119d590613115565b60405180910390fd5b60001515600f60008373ffffffffffffffffffffffffffffffffffffffff1673ffffffffffffffffffffffffffffffffffffffff16815260200190815260200160002060009054906101000a900460ff16151514611a71576040517f08c379a0000000000000000000000000000000000000000000000000000000008152600401611a68906135c3565b60405180910390fd5b6001600f60008373ffffffffffffffffffffffffffffffffffffffff1673ffffffffffffffffffffffffffffffffffffffff16815260200190815260200160002060006101000a81548160ff02191690831515021790555080600760006101000a81548173ffffffffffffffffffffffffffffffffffffffff021916908373ffffffffffffffffffffffffffffffffffffffff1602179055506015819080600181540180825580915050600190039060005260206000200160009091909190916101000a81548173ffffffffffffffffffffffffffffffffffffffff021916908373ffffffffffffffffffffffffffffffffffffffff1602179055508073ffffffffffffffffffffffffffffffffffffffff167fff981d19ed340961adeafcb27727e8c2b5bdaefe87f3683db00cadcd1c3e52d733604051611bb39190612b13565b60405180910390a250565b601360003373ffffffffffffffffffffffffffffffffffffffff1673ffffffffffffffffffffffffffffffffffffffff16815260200190815260200160002060009054906101000a900460ff16611c4a576040517f08c379a0000000000000000000000000000000000000000000000000000000008152600401611c4190613115565b60405180910390fd5b6000601182604051611c5c919061349e565b908152602001604051809103902060006101000a81548160ff0219169083151502179055611cbf576040517f08c379a0000000000000000000000000000000000000000000000000000000008152600401611cb69061362f565b60405180910390fd5b6001601182604051611cd1919061349e565b908152602001604051809103902060006101000a81548160ff02191690831515021790555080600c9080519060200190611d0c929190612931565b50601681908060018154018082558091505060019003906000526020600020016000909190919091509080519060200190611d48929190612931565b5080604051611d57919061349e565b60405180910390207f2516508dd88ecc6d3032b7c5fdf30eda8b45a8907e27fd70bdb576255ca73d8833604051611d8e9190612b13565b60405180910390a250565b601360003373ffffffffffffffffffffffffffffffffffffffff1673ffffffffffffffffffffffffffffffffffffffff16815260200190815260200160002060009054906101000a900460ff16611e25576040517f08c379a0000000000000000000000000000000000000000000000000000000008152600401611e1c90613115565b60405180910390fd5b600115156010600083815260200190815260200160002060009054906101000a900460ff16151514611e8c576040517f08c379a0000000000000000000000000000000000000000000000000000000008152600401611e839061369b565b60405180910390fd5b8060088190555050565b600b60009054906101000a900473ffffffffffffffffffffffffffffffffffffffff1681565b60178181548110611ecc57600080fd5b906000526020600020016000915090508054611ee790613005565b80601f0160208091040260200160405190810160405280929190818152602001828054611f1390613005565b8015611f605780601f10611f3557610100808354040283529160200191611f60565b820191906000526020600020905b815481529060010190602001808311611f4357829003601f168201915b505050505081565b611f706129b7565b611f786129b7565b611f8f858585846120cb909392919063ffffffff16565b9150509392505050565b611fb082846080015161217b90919063ffffffff16565b611fc781846080015161217b90919063ffffffff16565b505050565b611fe382846080015161217b90919063ffffffff16565b611ffa8184608001516121a090919063ffffffff16565b505050565b60008060045490506001816120149190613521565b6004819055506000634042994660e01b60008087600001513089604001518760018c608001516000015160405160240161205598979695949392919061374b565b604051602081830303815290604052907bffffffffffffffffffffffffffffffffffffffffffffffffffffffff19166020820180517bffffffffffffffffffffffffffffffffffffffffffffffffffffffff838183161783525050505090506120c08683868461224d565b925050509392505050565b6120d36129b7565b6120e385608001516101006123e2565b508385600001818152505082856020019073ffffffffffffffffffffffffffffffffffffffff16908173ffffffffffffffffffffffffffffffffffffffff16815250508185604001907bffffffffffffffffffffffffffffffffffffffffffffffffffffffff191690817bffffffffffffffffffffffffffffffffffffffffffffffffffffffff191681525050849050949350505050565b612188826003835161244c565b61219b81836125d190919063ffffffff16565b505050565b7fffffffffffffffffffffffffffffffffffffffffffffffff00000000000000008112156121d7576121d282826125f3565b612249565b67ffffffffffffffff8113156121f6576121f1828261266a565b612248565b6000811261220f5761220a8260008361244c565b612247565b612246826001837fffffffffffffffffffffffffffffffffffffffffffffffffffffffffffffffff61224191906137da565b61244c565b5b5b5b5050565b60003084604051602001612262929190613927565b604051602081830303815290604052805190602001209050846005600083815260200190815260200160002060006101000a81548173ffffffffffffffffffffffffffffffffffffffff021916908373ffffffffffffffffffffffffffffffffffffffff160217905550807fb5e6e01e79f91267dc17b4e6314d5d4d03593d2ceee0fbb452b750bd70ea5af960405160405180910390a2600260009054906101000a900473ffffffffffffffffffffffffffffffffffffffff1673ffffffffffffffffffffffffffffffffffffffff16634000aea08685856040518463ffffffff1660e01b815260040161235893929190613953565b6020604051808303816000875af1158015612377573d6000803e3d6000fd5b505050506040513d601f19601f8201168201806040525081019061239b91906139bd565b6123da576040517f08c379a00000000000000000000000000000000000000000000000000000000081526004016123d190613a5c565b60405180910390fd5b949350505050565b6123ea612a24565b60006020836123f99190613aab565b146124255760208261240b9190613aab565b60206124179190613adc565b826124229190613521565b91505b81836020018181525050604051808452600081528281016020016040525082905092915050565b60178167ffffffffffffffff16116124835761247d8160058460ff16901b60ff1617846126b690919063ffffffff16565b506125cc565b60ff8167ffffffffffffffff16116124d9576124b2601860058460ff16901b17846126b690919063ffffffff16565b506124d38167ffffffffffffffff166001856126d69092919063ffffffff16565b506125cb565b61ffff8167ffffffffffffffff161161253057612509601960058460ff16901b17846126b690919063ffffffff16565b5061252a8167ffffffffffffffff166002856126d69092919063ffffffff16565b506125ca565b63ffffffff8167ffffffffffffffff161161258957612562601a60058460ff16901b17846126b690919063ffffffff16565b506125838167ffffffffffffffff166004856126d69092919063ffffffff16565b506125c9565b6125a6601b60058460ff16901b17846126b690919063ffffffff16565b506125c78167ffffffffffffffff166008856126d69092919063ffffffff16565b505b5b5b5b505050565b6125d9612a24565b6125eb838460000151518485516126f8565b905092915050565b61261160036005600660ff16901b17836126b690919063ffffffff16565b5061266682827fffffffffffffffffffffffffffffffffffffffffffffffffffffffffffffffff61264291906137da565b6040516020016126529190612d8f565b6040516020818303038152906040526127e7565b5050565b61268860026005600660ff16901b17836126b690919063ffffffff16565b506126b2828260405160200161269e9190612d8f565b6040516020818303038152906040526127e7565b5050565b6126be612a24565b6126ce838460000151518461280c565b905092915050565b6126de612a24565b6126ef848560000151518585612863565b90509392505050565b612700612a24565b825182111561270e57600080fd5b8460200151828561271f9190613521565b1115612754576127538560026127448860200151888761273f9190613521565b6128f1565b61274e9190613282565b61290d565b5b6000808651805187602083010193508088870111156127735787860182525b60208701925050505b602084106127ba57805182526020826127959190613521565b91506020816127a49190613521565b90506020846127b39190613adc565b935061277c565b60006001856020036101000a03905080198251168184511681811785525050508692505050949350505050565b6127f4826002835161244c565b61280781836125d190919063ffffffff16565b505050565b612814612a24565b8360200151831061283a5761283984600286602001516128349190613282565b61290d565b5b8351805160208583010184815381861415612856576001820183525b5050508390509392505050565b61286b612a24565b8460200151848361287c9190613521565b11156128a4576128a385600286856128949190613521565b61289e9190613282565b61290d565b5b60006001836101006128b69190613c43565b6128c09190613adc565b905085518386820101858319825116178152815185880111156128e35784870182525b505085915050949350505050565b60008183111561290357829050612907565b8190505b92915050565b60008260000151905061292083836123e2565b5061292b83826125d1565b50505050565b82805461293d90613005565b90600052602060002090601f01602090048101928261295f57600085556129a6565b82601f1061297857805160ff19168380011785556129a6565b828001600101855582156129a6579182015b828111156129a557825182559160200191906001019061298a565b5b5090506129b39190612a3e565b5090565b6040518060a0016040528060008019168152602001600073ffffffffffffffffffffffffffffffffffffffff16815260200160007bffffffffffffffffffffffffffffffffffffffffffffffffffffffff1916815260200160008152602001612a1e612a24565b81525090565b604051806040016040528060608152602001600081525090565b5b80821115612a57576000816000905550600101612a3f565b5090565b6000604051905090565b600080fd5b600080fd5b6000819050919050565b612a8281612a6f565b8114612a8d57600080fd5b50565b600081359050612a9f81612a79565b92915050565b600060208284031215612abb57612aba612a65565b5b6000612ac984828501612a90565b91505092915050565b600073ffffffffffffffffffffffffffffffffffffffff82169050919050565b6000612afd82612ad2565b9050919050565b612b0d81612af2565b82525050565b6000602082019050612b286000830184612b04565b92915050565b6000819050919050565b612b4181612b2e565b82525050565b6000602082019050612b5c6000830184612b38565b92915050565b600080fd5b600080fd5b6000601f19601f8301169050919050565b7f4e487b7100000000000000000000000000000000000000000000000000000000600052604160045260246000fd5b612bb582612b6c565b810181811067ffffffffffffffff82111715612bd457612bd3612b7d565b5b80604052505050565b6000612be7612a5b565b9050612bf38282612bac565b919050565b600067ffffffffffffffff821115612c1357612c12612b7d565b5b612c1c82612b6c565b9050602081019050919050565b82818337600083830152505050565b6000612c4b612c4684612bf8565b612bdd565b905082815260208101848484011115612c6757612c66612b67565b5b612c72848285612c29565b509392505050565b600082601f830112612c8f57612c8e612b62565b5b8135612c9f848260208601612c38565b91505092915050565b600060208284031215612cbe57612cbd612a65565b5b600082013567ffffffffffffffff811115612cdc57612cdb612a6a565b5b612ce884828501612c7a565b91505092915050565b60008115159050919050565b612d0681612cf1565b82525050565b6000602082019050612d216000830184612cfd565b92915050565b612d3081612af2565b8114612d3b57600080fd5b50565b600081359050612d4d81612d27565b92915050565b600060208284031215612d6957612d68612a65565b5b6000612d7784828501612d3e565b91505092915050565b612d8981612a6f565b82525050565b6000602082019050612da46000830184612d80565b92915050565b600081519050919050565b600082825260208201905092915050565b60005b83811015612de4578082015181840152602081019050612dc9565b83811115612df3576000848401525b50505050565b6000612e0482612daa565b612e0e8185612db5565b9350612e1e818560208601612dc6565b612e2781612b6c565b840191505092915050565b60006020820190508181036000830152612e4c8184612df9565b905092915050565b612e5d81612b2e565b8114612e6857600080fd5b50565b600081359050612e7a81612e54565b92915050565b60008060408385031215612e9757612e96612a65565b5b6000612ea585828601612e6b565b9250506020612eb685828601612a90565b9150509250929050565b600060208284031215612ed657612ed5612a65565b5b6000612ee484828501612e6b565b91505092915050565b6000612ef882612ad2565b9050919050565b612f0881612eed565b8114612f1357600080fd5b50565b600081359050612f2581612eff565b92915050565b60008060408385031215612f4257612f41612a65565b5b6000612f5085828601612f16565b9250506020612f6185828601612a90565b9150509250929050565b6000612f7682612af2565b9050919050565b612f8681612f6b565b8114612f9157600080fd5b50565b600081359050612fa381612f7d565b92915050565b600060208284031215612fbf57612fbe612a65565b5b6000612fcd84828501612f94565b91505092915050565b7f4e487b7100000000000000000000000000000000000000000000000000000000600052602260045260246000fd5b6000600282049050600182168061301d57607f821691505b6020821081141561303157613030612fd6565b5b50919050565b7f536f75726365206d75737420626520746865206f7261636c65206f662074686560008201527f2072657175657374000000000000000000000000000000000000000000000000602082015250565b6000613093602883612db5565b915061309e82613037565b604082019050919050565b600060208201905081810360008301526130c281613086565b9050919050565b7f756e617574686f72697a65640000000000000000000000000000000000000000600082015250565b60006130ff600c83612db5565b915061310a826130c9565b602082019050919050565b6000602082019050818103600083015261312e816130f2565b9050919050565b7f616d6f756e742065786365656473000000000000000000000000000000000000600082015250565b600061316b600e83612db5565b915061317682613135565b602082019050919050565b6000602082019050818103600083015261319a8161315e565b9050919050565b600081905092915050565b50565b60006131bc6000836131a1565b91506131c7826131ac565b600082019050919050565b60006131dd826131af565b9150819050919050565b7f7472616e73616374696f6e206661696c65640000000000000000000000000000600082015250565b600061321d601283612db5565b9150613228826131e7565b602082019050919050565b6000602082019050818103600083015261324c81613210565b9050919050565b7f4e487b7100000000000000000000000000000000000000000000000000000000600052601160045260246000fd5b600061328d82612a6f565b915061329883612a6f565b9250817fffffffffffffffffffffffffffffffffffffffffffffffffffffffffffffffff04831182151516156132d1576132d0613253565b5b828202905092915050565b7f6f776e657220616c726561647920616464656400000000000000000000000000600082015250565b6000613312601383612db5565b915061331d826132dc565b602082019050919050565b6000602082019050818103600083015261334181613305565b9050919050565b7f596f752068617665206e6f742061646465642074686973206f7261636c650000600082015250565b600061337e601e83612db5565b915061338982613348565b602082019050919050565b600060208201905081810360008301526133ad81613371565b9050919050565b7f4a6f6220616c7265616479206164646564000000000000000000000000000000600082015250565b60006133ea601183612db5565b91506133f5826133b4565b602082019050919050565b60006020820190508181036000830152613419816133dd565b9050919050565b60008151905061342f81612a79565b92915050565b60006020828403121561344b5761344a612a65565b5b600061345984828501613420565b91505092915050565b600081905092915050565b600061347882612daa565b6134828185613462565b9350613492818560208601612dc6565b80840191505092915050565b60006134aa828461346d565b915081905092915050565b7f7061746820616c72656164792065786973747300000000000000000000000000600082015250565b60006134eb601383612db5565b91506134f6826134b5565b602082019050919050565b6000602082019050818103600083015261351a816134de565b9050919050565b600061352c82612a6f565b915061353783612a6f565b9250827fffffffffffffffffffffffffffffffffffffffffffffffffffffffffffffffff0382111561356c5761356b613253565b5b828201905092915050565b7f4f7261636c6520616c7265616479206164646564000000000000000000000000600082015250565b60006135ad601483612db5565b91506135b882613577565b602082019050919050565b600060208201905081810360008301526135dc816135a0565b9050919050565b7f75726c20616c7265616479206164646564000000000000000000000000000000600082015250565b6000613619601183612db5565b9150613624826135e3565b602082019050919050565b600060208201905081810360008301526136488161360c565b9050919050565b7f596f752068617665206e6f742061646465642074686973206a6f620000000000600082015250565b6000613685601b83612db5565b91506136908261364f565b602082019050919050565b600060208201905081810360008301526136b481613678565b9050919050565b60007fffffffff0000000000000000000000000000000000000000000000000000000082169050919050565b6136f0816136bb565b82525050565b600081519050919050565b600082825260208201905092915050565b600061371d826136f6565b6137278185613701565b9350613737818560208601612dc6565b61374081612b6c565b840191505092915050565b600061010082019050613761600083018b612b04565b61376e602083018a612d80565b61377b6040830189612b38565b6137886060830188612b04565b61379560808301876136e7565b6137a260a0830186612d80565b6137af60c0830185612d80565b81810360e08301526137c18184613712565b90509998505050505050505050565b6000819050919050565b60006137e5826137d0565b91506137f0836137d0565b9250827f80000000000000000000000000000000000000000000000000000000000000000182126000841215161561382b5761382a613253565b5b827f7fffffffffffffffffffffffffffffffffffffffffffffffffffffffffffffff01821360008412161561386357613862613253565b5b828203905092915050565b6000819050919050565b600061389361388e61388984612ad2565b61386e565b612ad2565b9050919050565b60006138a582613878565b9050919050565b60006138b78261389a565b9050919050565b60008160601b9050919050565b60006138d6826138be565b9050919050565b60006138e8826138cb565b9050919050565b6139006138fb826138ac565b6138dd565b82525050565b6000819050919050565b61392161391c82612a6f565b613906565b82525050565b600061393382856138ef565b6014820191506139438284613910565b6020820191508190509392505050565b60006060820190506139686000830186612b04565b6139756020830185612d80565b81810360408301526139878184613712565b9050949350505050565b61399a81612cf1565b81146139a557600080fd5b50565b6000815190506139b781613991565b92915050565b6000602082840312156139d3576139d2612a65565b5b60006139e1848285016139a8565b91505092915050565b7f756e61626c6520746f207472616e73666572416e6443616c6c20746f206f726160008201527f636c650000000000000000000000000000000000000000000000000000000000602082015250565b6000613a46602383612db5565b9150613a51826139ea565b604082019050919050565b60006020820190508181036000830152613a7581613a39565b9050919050565b7f4e487b7100000000000000000000000000000000000000000000000000000000600052601260045260246000fd5b6000613ab682612a6f565b9150613ac183612a6f565b925082613ad157613ad0613a7c565b5b828206905092915050565b6000613ae782612a6f565b9150613af283612a6f565b925082821015613b0557613b04613253565b5b828203905092915050565b60008160011c9050919050565b6000808291508390505b6001851115613b6757808604811115613b4357613b42613253565b5b6001851615613b525780820291505b8081029050613b6085613b10565b9450613b27565b94509492505050565b600082613b805760019050613c3c565b81613b8e5760009050613c3c565b8160018114613ba45760028114613bae57613bdd565b6001915050613c3c565b60ff841115613bc057613bbf613253565b5b8360020a915084821115613bd757613bd6613253565b5b50613c3c565b5060208310610133831016604e8410600b8410161715613c125782820a905083811115613c0d57613c0c613253565b5b613c3c565b613c1f8484846001613b1d565b92509050818404811115613c3657613c35613253565b5b81810290505b9392505050565b6000613c4e82612a6f565b9150613c5983612a6f565b9250613c867fffffffffffffffffffffffffffffffffffffffffffffffffffffffffffffffff8484613b70565b90509291505056fea26469706673582212201af404dbab3a0b0e3503c30b43a6cfdbbfa4b3e95282c82598c6f899296ec14964736f6c634300080a0033",
  "linkReferences": {},
  "deployedLinkReferences": {}
}